:020000040000FA
:060000004FEF29F0120091
:0A0006000400795300007B0E000097
:100010000B0000006E530000700E00000B0000008B
:10002000FE520000000E000070000000FA520000B6
:08003000A00E00000400000016
:08003800FF01010101010101BA
:1000400001010101010101010101010101010101A0
:100050000101010101010101010101010101010190
:100060000101010101010101010101010101010180
:100070000101010101010101010101C1F1F9FDFDD0
:10008000FDFFFF7F3F3F3F3F7FFFFFFFFDFDF9F19A
:10009000C101010101010101010101010101010190
:1000A0000101010101010101010101010101010140
:1000B00001010101010101FFFFF8F8F8F8F8F8F873
:1000C000F8F80000000000000000000000F8F8F858
:1000D000F8F8F8F8F800000000000000F8F8F8F868
:1000E000F8F8F8F8F8F8F8F8F8F8F8F8F8F8F8F890
:1000F000F8F8F8F8F800000000000003070F0F0FF1
:100100000F070380C0E0F0F8FCFFFFFF7F7F3F1F79
:1001100007000000000000F8F8F8F8F8F8F8F8F820
:10012000F8F8F8F8F8F8F8F8F8F8F8F0F0F0E0E097
:10013000C0000000000000FFFFFFFFFFFFFFFFFF08
:10014000FFFFE0E0E0E0E0E0E0E0E0E0E0FFFFFF14
:10015000FFFFFFFFFF00000000000000FFFFFFFFA8
:10016000FFFFFFFFE1E1E1E1E1E1E1E1E1E1E1E107
:10017000E1E1C10101000000000000E0E0F0F8FC56
:10018000FEFFFFFFFFDFCFC7C7C3C1C0C0C0C0C0F5
:1001900080000000000000FFFFFFFFFFFFFFFFE106
:1001A000E1E1E1E1E1E1E1E1E1F3FFFFFFFFFF7FF9
:1001B0007F1F0000000000FFFFFFFFFFFFFFFFFFAA
:1001C000FFFF0707070707070707070707FFFFFFE7
:1001D000FFFFFFFFFF00000000000000FFFFFFFF28
:1001E000FFFFFFFF070707070707070707070707BF
:1001F00007070700000000000000000707070707C7
:10020000070707070707070707070707070707077E
:1002100003000000000000FFFFFFFFFFFFFFFF0FD4
:100220000707070707070707078FFFFFFFFFFFFE07
:10023000FEFCF000000000FFFF1F3F3F3F3F3F3F3D
:100240003F1F00000000000000000000003F3F3F93
:100250003F3F3F3F3F000000000000003F3F3F3F67
:100260003F3F3F3F3F3F3F3F3F3F3F3F3F3F3F3F9E
:100270003F3F3F3F1F000000000000070707070740
:1002800007070707070707070707070707070707FE
:10029000070000000000003F3F3F3F3F3F3F3F3F20
:1002A0003F3F3F3F3F3F3F3F3F1F1F1F1F1F0F0F5E
:1002B00007030000000000FFFFF8F8F8F8F800005E
:1002C00000000080E0E0F0F0F078787878787878D6
:1002D00078F8F0F060000000000000F8F8F8F8F896
:1002E000000000000000F8F8F8F8F87878787878DE
:1002F000787870F0F0F0E0C000000000000000002E
:1003000000000000000000000000000000000000ED
:1003100000000000000000000000000000000000DD
:1003200000000000000000000000000000000000CD
:1003300000000000000000FFFFFFFFFFFFFF0000C4
:10034000000000070F1F3F3F3C38787878787870BE
:10035000F0F0F0E0C0000000000000FFFFFFFFFF32
:10036000000000000000FFFFFFFFFF78787878783A
:10037000787878FCFFFFEFC78100000000000000E4
:100380000000FEFE1E7CF080E07C0EFEFE000004FD
:1003900006FEFE00000000000000FEFE32323202C7
:1003A00000FEFE00000000FEFE0E1E78E0C0FE0013
:1003B00000000000000000FFFFFFFFFFFFFF808044
:1003C0008080B8BCFCFCFCF8F8F8F0F0F0F0F8F82D
:1003D000BFBF9F9F8F838080808080FFFFFFFFFFD4
:1003E000808080808080FFFFFFFFFFF8F8F8F8F83A
:1003F000F8F8F8BCBFBF9F9F878080808080808096
:1004000080808383808083838380808383808082D5
:1004100083838382828080808080838383838382BE
:1004200080838383838380838380808081838380B0
:1004300080808080808080FF00000000000000003D
:1004400000000000000000000000000000000000AC
:10045000000000000000000000000000000000009C
:10046000000000000000000000000000000000008C
:10047000000000000000000000000000000000007C
:1008700000000000000080808080008080808080F8
:100880008080808080808080808080808080808068
:1008900080808080808080000000000000000000D8
:1008A0000000000000000000000000000000000048
:1008B0000000000000000000000000000000000038
:1008C0000000000000000000000000000000000028
:1008D00080C0C0C0C0C0C0C0C0C0C0C0C0C0C0C058
:1008E000C0C0C0C0C0C0C0C0C0C0C0C0C0C0C0C008
:1008F000C0C0C0800000FFFFFFFF00C3E3E3E3E3ED
:10090000E3E3FBFBFBFBFBFB0303030303E3E3E387
:10091000E3E3E3FFFFFFFF7F0000000000000000B3
:1009200000000000000000000000000000000000C7
:1009300000000000000000000000000000000000B7
:1009400000000000000000000000000000000000A7
:100950007FFFFFFFFFE1E1E1E1E1E1E1E1E1E1E171
:10096000E1E1E1E1E1E1E1E1E1E1E1E1E1E1E1FF59
:10097000FFFFFF7F00001F1F1F1F1C183939393967
:100980003939393931313130707070F0F0E1E1E1ED
:10099000E1E1E1E1E1E1E0C0000000000000000071
:1009A0000000000000000000000000000000000047
:1009B0000000000000000000000000000000000037
:1009C0000000000000000000000000000000000027
:1009D00000E0E0E0E0E0E0E0E0F0F0F0F0B0B0B047
:1009E000B0B0B03838383818181818181C1C1C1C2F
:1009F0001C0C0C0CCCCCCCCECECEC6C6C6C6C6C645
:100A0000C6C7C7C7C3C3C3C3C3C3C3C3C3C3C1C1AB
:100A1000C1C1C1C1C1C1C1C10000000000000000CE
:100A200000000000000000000000000000000000C6
:100A300000000000000000000000000000000000B6
:100A400000000000000000000000000000000000A6
:100A5000E0E0E0E1E1E1E1E1E1E1E1E1E1E3E3E383
:100A6000E3E3E3E3E3E3E3E7E7E7E7E7E7070FFED3
:100A7000FEFEFE0081C1C1C1D9DDDDDDDDDDFDFD94
:100A8000FFFFFFFFFFFFF7F7F7F7F7E7E3E3E3E326
:100A9000E3E3C3C3C1C1C1C1000000000000000006
:100AA0000000000000000000000000000000000046
:100AB0000000000000000000000000000000000036
:100AC0000000000000000000000000000000000026
:100AD000BFBFBFBFBF818080808080808080808AD0
:100AE0009F9F9F9F9F80808080808080800000FFEC
:100AF000FFFFFF00F3F3F3F3F3F373737373737395
:100B000073737373F3F3F3F3F37373737373737335
:100B1000737373F3F3F3F3F30000000000000000BD
:100B200000000000000000000000000000000000C5
:100B300000000000000000000000000000000000B5
:100B400000000000000000000000000000000000A5
:100B5000C3C3E3E3E3E3E3F3F37373737B7B3B3BF5
:100B6000FBFBFBFBE3E3E3E3E3E3E3E3C30000FFBF
:100B7000FFFFFF000F0F0F0F0F0F0000000000001E
:100B80000000000007070707070000000000000042
:100B90000000000F0F0F0F0F00000000000000000A
:100BA0000000000000000000000000000000000045
:100BB0000000000000000000000000000000000035
:100BC0000000000000000000000000000000000025
:100BD0000000000000000000000000000000000015
:10106000183830F0F06060E0C0C080800000000000
:101070000000000000000000000000000000000070
:101080000000000000F0F0F0F0F0F0F0F0F0F0F010
:10109000F0F0E00000000000000000000000000090
:1010A0000000000000000000F0F0F0F000F0F0F0B0
:1010B000F000000000000000000000000000808040
:1010C0008080808080808080808000000000000020
:1010D0000000000000000000000000000000000010
:1010E000389898DFCFCCCEC6878703030000000076
:1010F000000018383838F8F838383838F8F8000070
:101100000000000000C3C3C3C3C3C3C3C3C3FFFF06
:10111000FFFFFFFEFEFEFEC0C0C0C000000000C01A
:10112000C0C0C00000000000DEDEDEDE0000000007
:1011300000000000000000000000000000000303A9
:1011400003031F3F736363733F1F00000000000031
:10115000000000000000000000C0C000000000000F
:101160007F7F43010101010101437F7E00000000F8
:1011700000006060606061E3E7666667E3E10000CD
:1011800000F8F8F8F8FF0F0F0FFFFFFFFFFFFFFF5A
:10119000FFFFFF0F0F0FFFFFFFFFFFF8F8F8F80F3B
:1011A0000F0F0F0000000000030303030000000006
:1011B0000000000000000000000000000000FE7EB3
:1011C0000606060606060606060600000000000ED5
:1011D0000E0E8E8E8E8E8E8E0E7F7F000000000093
:1011E000FCFE060707030707070EFCF800000000D7
:1011F0000000989C9C8C8E878F8C9C9C8F87000015
:10120000003F3F3F3F3F000000FFFFFFFFFFFFFFAA
:10121000FFFFFFFFFFFFFFFFFFFFFF0101010100D5
:101220000000000000000000DEDEDEDE00C0C0C006
:10123000C000000000000000000000000000038368
:1012400083FEFECECCEC7C7878380000000010FEE7
:10125000FF8383030103038387FFFC00000000007A
:10126000F9F9191818F8F8181819F9F90000000018
:101270000000BFBF8101011F1F8181813F3F00002E
:1012800000FCFCFCFCFC000000FFFFFFFFFFFFFF79
:10129000FFFFFFFFFFFFFFFFFFFFFF808080800059
:1012A00000000000000000007B7B7B7B0003030349
:1012B0000300000000000000000000000000737345
:1012C00071717170F8D8DC8C8E060000000000008F
:1012D00001030303030303030301000000000000F4
:1012E00033333030F0F131303030F3F300000000B0
:1012F00000001FBF7070783C1F0703233F3F0000B2
:10130000001F1F1F1FFFF0F0F0FFFFFFFFFFFFFF99
:10131000FFFFFFF0F0F0FFFFFFFFFF1F1F1F1FF099
:10132000F0F0F000000000000000000000E0E0E04D
:10133000E0000000000000000000000000000000CD
:101340000000000000000101030300000000000095
:10135000000000000000000000000000000000008D
:10136000808080808187878E8E8EF7F3000000005A
:1013700000003F7F6060707C1E0703037F3E00001B
:101380000000000000C3C3C3C3C3C3C3C3C3FFFF84
:10139000FFFFFF7F7F7F7F03030303000000000345
:1013A0000303030000000000BCBCBCBC003D3D3D8D
:1013B0003D000000000000000000000000000000F0
:1013C000000000000000000000000000000000001D
:1013D000000000000000000000000000000000000D
:1013E000030303030303030303031F1F00000000A1
:1013F00000000000000000000000000000000000ED
:1014000000000000000F0F0F0F0F0F0F0F0F0F0F37
:101410000F0F0700000000000000000000000000A7
:1014200000000000000000000707070700000000A0
:1014300000000000000000000000000000000000AC
:10144000000000000000000000000000000000009C
:10145000000000000000000000000000000000008C
:10146000000000000000000000000000000000007C
:08183800D9CFE6FFE1CFD9FF93
:10184000020EE126E66AE66A080EE66E800EE66E95
:10185000380EE66E000EE66EF6EC1CF0146E060E08
:10186000E15E1450E80EE66E030EE66E5BEC19F0D6
:10187000E552E552DF6ADF50146E156AD8901550B4
:1018800004E6800E145C000E15581AE2010EDB6AA5
:10189000400EF36E010EDBCFF4FFF350F45C0EE26A
:1018A000E66A010EDBCFE6FFDFCFE6FF20EC24F097
:1018B000E552E552E552010EDB2AEAD7DF2ADBD7F3
:1018C000320EE66EE66A5BEC19F0E552E552020E66
:1018D000E15C02E2E16AE552E16EE552E7CFD9FF51
:1018E0001200D9CFE6FFE1CFD9FF160EE12670CE68
:1018F000E6FF71CEE6FF72CEE6FF73CEE6FFE00EA6
:10190000E66E000EE66E45EC11F0146E060EE15E1A
:101910001450140EDB6A150EDB6A140EDBCF14F0C4
:10192000150EDBCF15F0D890155004E6040E145CAC
:10193000000E155858E2120EDB6A130EDB6A120E07
:10194000DBCF14F0130EDBCF15F0D890155004E662
:10195000040E145C000E155840E2120EDBCF18F096
:10196000130EDBCF19F0D89018361936D8901836E8
:101970001936E00E1826000E1922140EDB5018241A
:10198000E96E150EDB501920EA6EEF50E66ED9CFE6
:1019900016F0DACF17F0040E086E096A140EDBCFCA
:1019A0000DF0150EDBCF0EF0DAEC27F01650062402
:1019B000146E17500720156E120EDB501424E96EBA
:1019C000130EDB501520EA6EE552E750EF6E120E53
:1019D000DB2A130E01E3DB2AB2D7140EDB2A150E25
:1019E00001E3DB2A9AD770CEE6FF71CEE6FF72CE16
:1019F000E6FF73CEE6FFD9CFE6FFDACFE6FF2BECAA
:101A000012F0146E060EE15E1450000901E17BD065
:101A1000100EDB6A110EDB6A100EDBCF14F0110E14
:101A2000DBCF15F0D890155004E6040E145C000EC0
:101A3000155858E2120EDB6A130EDB6A120EDBCF6A
:101A400014F0130EDBCF15F0D890155004E6040EF9
:101A5000145C000E155840E2D9CF18F0DACF19F017
:101A6000040E086E096A100EDBCF0DF0110EDBCFED
:101A70000EF0DAEC27F018500624166E19500720E5
:101A8000176E120EDB501624E96E130EDB50172072
:101A9000EA6EEF50E66E100EDBCF14F0110EDBCFC6
:101AA00015F0D89014361536D89014361536E00E49
:101AB0001426000E1522120EDB501424E96E130EAC
:101AC000DB501520EA6EE552E750EF6E120EDB2A6E
:101AD000130E01E3DB2AB2D7100EDB2A110E01E34D
:101AE000DB2A9AD770CEE6FF71CEE6FF72CEE6FF14
:101AF00073CEE6FFE00EE66E000EE66EE7DB146ED8
:101B0000060EE15E1450160EE15C02E2E16AE55257
:101B1000E16EE552E7CFD9FF1200D9CFE6FFE1CF62
:101B2000D9FF0B0EE126DE6ADD6A020EDB6A030EC8
:101B3000DB6A010EF36E040EF3CFDBFF70CEE6FF1F
:101B400071CEE6FF72CEE6FF73CEE6FFE00EE66EE4
:101B5000000EE66E9ADB146E060EE15E1450010E66
:101B60000E01156A7025146E7151152214C0E6FF1E
:101B700015C0E6FF72CEE6FF73CEE6FFE00EE66E1E
:101B8000000EE66E2BEC12F0166E060EE15E16509D
:101B9000000918E00E01702B000E712370CEE6FFD5
:101BA00071CEE6FF72CEE6FF73CEE6FFE00EE66E84
:101BB000000EE66E8BDB146E060EE15E1450010E15
:101BC000EED011D070CEE6FF71CEE6FF72CEE6FF0A
:101BD00073CEE6FFE00EE66E000EE66E77DB146E67
:101BE000060EE15E1450100EF36E070EF3CFDBFF0E
:101BF000080EDB6A070EDBCF14F0080EDBCF15F002
:101C0000153404E214500008000E155401E3C4D04A
:101C1000010EF36E040EF3CFDBFF050EDB6A060E3A
:101C2000DB6A050EDBCF14F0060EDBCF15F0D89083
:101C3000155004E6080E145C000E155822E2070E3B
:101C4000DBCF14F0080EDBCF15F0030ED89014365E
:101C50001536E806FBE1600E1426000E1522050E6F
:101C6000DB501424E96E060EDB501520EA6EEF50AF
:101C700002E1040EDB6A050EDB2A060E01E3DB2A15
:101C8000D0D7040EDB5001E17CD0020EDB2A030E1C
:101C900001E3DB2ADF2A010E01E3DB2A070EDBCF9B
:101CA00008F0080EDBCF09F0090E08C0DBFF0A0EB2
:101CB00009C0DBFF090EDBCF14F00A0EDBCF15F0F5
:101CC000D890155004E60F0E145C000E155859E21A
:101CD000050EDB6A060EDB6A050EDBCF14F0060E7E
:101CE000DBCF15F0D890155004E6080E145C000EFA
:101CF000155841E2010EE76E090EDBCF16F00A0E11
:101D0000DBCF17F0E7501626000E1722030ED890EF
:101D100016361736E806FBE1600E1626000E17226F
:101D2000050EDB501624E96E060EDB501720EA6E16
:101D3000EF50E66E090EDBCF14F00A0EDBCF15F084
:101D4000030ED89014361536E806FBE1600E142613
:101D5000000E1522050EDB501424E96E060EDB5032
:101D60001520EA6EE552E750EF6E050EDB2A060EEF
:101D700001E3DB2AB1D7090EDB2A0A0E01E3DB2AD5
:101D800099D7010EF36E040EF3CFDBFF070EDB06CF
:101D9000080E01E2DB062ED790D8000E00D0146E9C
:101DA0000B0EE15C02E2E16AE552E16E1450E5528D
:101DB000E7CFD9FF120070CEE6FF71CEE6FF72CEFC
:101DC000E6FF73CEE6FFE00EE66E000EE66E5DDA2D
:101DD000146E060EE15E145070CEE6FF71CEE6FF83
:101DE000010E0E01156A7225146E7351152214C06E
:101DF000E6FF15C0E6FFE00EE66E000EE66E2BDB9A
:101E0000166E060EE15E1650000904E00E01722BFC
:101E1000000E732370CEE6FF71CEE6FF72CEE6FFB2
:101E200073CEE6FFE00EE66E000EE66E4FDA146E3D
:101E3000060EE15E1450120070CEE6FF71CEE6FF92
:101E400072CEE6FF73CEE6FFE00EE66E000EE66EA3
:101E50001CDA146E060EE15E145070CEE6FF71CEF1
:101E6000E6FF72CE14F073CE15F01406000E155A6C
:101E700014C0E6FF15C0E6FFE00EE66E000EE66E4B
:101E8000EADA166E060EE15E1650000904E00E0155
:101E90007207000E735B70CEE6FF71CEE6FF72CE66
:101EA000E6FF73CEE6FFE00EE66E000EE66E0EDA9B
:101EB000146E060EE15E14501200D9CFE6FFE1CF9A
:101EC000D9FF040EE1260E01742B000E7523070EB8
:101ED0000D6E0E6A74CE08F075CE09F0B4EC27F0E2
:101EE00004C074FE05C075FEDE6ADD6ADECF14F044
:101EF000DDCF15F0D890155004E6040E145C000EEA
:101F000015585DE2020EDB6A030EDB6A020EDBCFC0
:101F100014F0030EDBCF15F0D890155004E6040E34
:101F2000145C000E155846E274CE18F075CE19F008
:101F3000040ED89018361936E806FBE1000E182674
:101F40000E0E1922040E086E096ADECF0DF0DDCFE9
:101F50000EF0DAEC27F018500624166E1950072000
:101F6000176E020EDB501624E96E030EDB501720AD
:101F7000EA6EEF50E66EDECF14F0DDCF15F0D890AC
:101F800014361536D89014361536E00E1426000E89
:101F90001522020EDB501424E96E030EDB501520CF
:101FA000EA6EE552E750EF6E020EDB2A030E01E304
:101FB000DB2AACD7DF2A010E01E3DB2A97D70E011B
:101FC00070697169020E726F736B040EE15C02E25C
:101FD000E16AE552E16EE552E7CFD9FF1200D9CFB1
:101FE000E6FFE1CFD9FF020EE1260E01010E7A6F66
:101FF000DF6A100EDF5C22E2010EDB6A080EF36E70
:10200000010EDBCFF4FFF350F45C16E2DF50080D55
:10201000F3CF14F0F4CF15F0600E1426000E152245
:10202000010EDB500F011424E96E000E1520EA6E3C
:10203000EF6A010EDB2AE2D7DF2ADBD73EDF020E92
:10204000E15C02E2E16AE552E16EE552E7CFD9FFD9
:102050001200D9CFE6FFE1CFD9FF0C0EE1260E0129
:102060007A5101E1A9D0D950040FE66E000EDA20B2
:10207000E66EE6EC25F0E552E5520E01762B000EF9
:102080007723040EDBCFDEFFDBCFDDFF773504E205
:1020900076511408000E77555AE376CE14F077CEB9
:1020A00015F0030E0D6E0E6A14C008F015C009F08D
:1020B000B4EC27F004C014F005C015F0145015104E
:1020C00017E1E66AE2EC22F0E5520A0EF3CFDBFFFD
:1020D0000B0EF4CFDBFF0A0EDBCF14F00B0EDBCFC1
:1020E00015F0580E145C020E155802E271EC0CF05B
:1020F000010EDB50010B1EE0DECF14F0DDCF15F03A
:102100001406000E155A141E151EFF0E1416010E8D
:10211000151614C0DEFF15C0DDFFDECF14F0DDCFD5
:1021200015F0153404E214500F08000E155401E2A6
:1021300083DE0CD0DECF14F0DDCF15F0153404E2D1
:1021400014500F08000E155401E235DE34D0E5DCE2
:1021500000092EE1010E0E01156A7025146E7151F1
:10216000152214C0E6FF15C0E6FF72CEE6FF73CE5F
:10217000E6FFE00EE66E000EE66E6DD9166E060EF8
:10218000E15E1650000912E070CEE6FF71CEE6FF68
:1021900072CEE6FF73CEE6FFE00EE66E000EE66E50
:1021A00095D8146E060EE15E145002D00FD804D0FC
:1021B0000E01766B776B1FD80C0EE15C02E2E16AD0
:1021C000E552E16EE552E7CFD9FF12000E01766BC2
:1021D000776B7A6BE66AE66A080EE66E800EE66E4C
:1021E000380EE66E080EE66EF6EC1CF0146E060E67
:1021F000E15E14501200D9CFE6FFE1CFD9FF020E05
:10220000E126DF6A100EDF5C36E2010EDB6A080EA3
:10221000F36E010EDBCFF4FFF350F45C2AE2DF50E3
:10222000080DF3CF14F0F4CF15F0600E1426000E55
:102230001522010EDB500F011424E96E000E15204B
:10224000EA6EEF500AE0DFCFE6FF010EDBCFE6FFDC
:1022500088EC24F0E552E55209D0DFCFE6FF010E0D
:10226000DBCFE6FF9CEC24F0E552E552010EDB2AC1
:10227000CED7DF2AC7D7020EE15C02E2E16AE5525F
:10228000E16EE552E7CFD9FF1200D9CFE6FFE1CFEB
:10229000D9FF010EE66EF90EDBCFE6FFFA0EDBCFBB
:1022A000E6FFFB0EDBCFE6FFFC0EDBCFE6FFFD0E0D
:1022B000DBCFE6FFFE0EDBCFE6FF29D8146E070E5C
:1022C000E15E1450E552E7CFD9FF1200D9CFE6FF07
:1022D000E1CFD9FF020EE66EF90EDBCFE6FFFA0E74
:1022E000DBCFE6FFFB0EDBCFE6FFFC0EDBCFE6FF2E
:1022F000FD0EDBCFE6FFFE0EDBCFE6FF08D8146E47
:10230000070EE15E1450E552E7CFD9FF1200D9CF96
:10231000E6FFE1CFD9FF020EE126DF6A040EDF5CA3
:1023200001E38FD0010EDB6A040EF36E010EDBCFEA
:10233000F4FFF350F45C01E382D0FD0EDBCF16F026
:10234000FE0EDBCF17F0DF50040D1650F324146E91
:102350001750F420156E010EDB500F011424E96EA6
:10236000000E1520EA6EEF5067E0F80EDB0430E156
:10237000DF50E76EF90EDBCF14F0FA0EDBCF15F06D
:10238000E7501426000E15220F0ED8801456000EAA
:102390001556030ED89014361536E806FBE1600E8C
:1023A0001426000E1522010EDB50E76EFB0EDBCF6C
:1023B00016F0FC0EDBCF17F0E7501626000E1722A2
:1023C00014501624E96E15501720EA6EEF6A34D0C7
:1023D000F80EDB50020830E1DF50E76EF90EDBCF7C
:1023E00014F0FA0EDBCF15F0E7501426000E15227C
:1023F0000F0ED8801456000E1556030ED8901436C2
:102400001536E806FBE1600E1426000E1522010EBB
:10241000DB50E76EFB0EDBCF16F0FC0EDBCF17F0C8
:10242000E7501626000E172214501624E96E155098
:102430001720EA6E010EEF6E010EDB2A75D7DF2A38
:102440006DD7020EE15C02E2E16AE552E16EE5520F
:10245000E7CFD9FF1200D9CFE6FFE1CFD9FF080EB1
:10246000E126DE6ADD6ADECF14F0DDCF15F0D8900C
:10247000155004E6040E145C000E155801E3FCD060
:10248000020EDB6A030EDB6A020EDBCF14F0030ED2
:10249000DBCF15F0D890155004E6040E145C000E46
:1024A000155801E3E4D0FB0EDBCF16F0FC0EDBCFBA
:1024B00017F0020EDB501624146E030EDB501720AB
:1024C000156E040E14C0DBFF050E15C0DBFFF90E00
:1024D000DBCF16F0FA0EDBCF17F0DE501624146EA9
:1024E000DD501720156E0F0ED8801456000E1556AD
:1024F000060E14C0DBFF070E15C0DBFF040EDBCF9A
:1025000014F0050EDBCF15F00001800E151425E147
:10251000040EDBCF16F0050EDBCF17F0D890175066
:1025200004E6080E165C000E175817E2060EDBCF05
:1025300018F0070EDBCF19F0800E19140EE1060E0D
:10254000DBCF1AF0070EDBCF1BF0D8901B5004E650
:10255000100E1A5C000E1B581EE3DECF1EF0DDCFFE
:102560001FF0D8901E361F36D8901E361F36FD0E2F
:10257000DB501E241C6EFE0EDB501F201D6E020E53
:10258000DB501C24E96E030EDB501D20EA6EEF5079
:1025900002E0000E73D0040EDBCF14F0050EDBCF8B
:1025A00015F0800E15145DE1040EDBCF16F0050E5C
:1025B000DBCF17F0D890175004E6080E165C000E1B
:1025C00017584FE2060EDBCF18F0070EDBCF19F0DD
:1025D000800E191446E1060EDBCF1AF0070EDBCF92
:1025E0001BF0D8901B5004E6100E1A5C000E1B580E
:1025F00038E2DECF16F0DDCF17F0D890163617365A
:10260000D89016361736FD0EDB501624146EFE0ECB
:10261000DB501720156E020EDB501424E96E030EFA
:10262000DB501520EA6EEF501CE0060EDBCF14F0F5
:10263000070EDBCF15F0030ED89014361536E806DA
:10264000FBE1600E1426000E1522040EDB5014244C
:10265000E96E050EDB501520EA6EEF5002E0000E29
:102660000DD0020EDB2A030E01E3DB2A0DD7DF2A91
:10267000010E01E3DB2AF7D6010E00D0146E080E1E
:10268000E15C02E2E16AE552E16E1450E552E7CF07
:04269000D9FF12005C
:0C26940086EC18F0FB0EDBCFF3FFDB063A
:1026A000F35000090AE0D4EC18F0FA0E3FEC19F0F0
:1026B000F3E1151CF1E1010E01D0000EB5EF18F0A9
:1026C00086EC18F03B0EE12402E3E168E652E16E8D
:1026D000010EDB6A020EDB6AF90EDBCFF6FFFA0EA3
:1026E000DBCFF7FFFB0EDBCFF8FF0800F550DF6E06
:1026F000DF5002E1D9EF17F0250EDF5C02E0CCEFEE
:1027000017F0030EDB6A040EDB6A050EDB6A060EA9
:10271000DB6A070EDB6AEEEC17F02D0EDF5C0CE0D7
:102720002B0EDF5C09E0200EDF5C06E0230EDF5C91
:1027300003E0300EDF5C1AE1DF50300A14E0130AC8
:102740000FE0030A0AE00B0A05E0060AE4E1030EC3
:10275000DB80E1D7030EDB82DED7030EDB84DBD721
:10276000030EDB86D8D7030EDB88D5D72A0EDF5CB5
:102770001BE1EAEC17F038EC18F010E0030EDB80F8
:1027800008680968130EDBCF0DF0140EDBCF0EF0D6
:10279000DAEC27F0040E06C0DBFF03D0130E21ECA9
:1027A00018F0EEEC17F00BD0090EDB6A8FEC18F086
:1027B00003E003EC19F0FAD7090E21EC18F0030E30
:1027C000DBB0DB982E0EDF5C1BE1EEEC17F02A0E7F
:1027D000DF5C0BE1EAEC17F038EC18F003E1130EC4
:1027E00073EC18F0EEEC17F00BD0090EDB6A8FECEF
:1027F00018F003E003EC19F0FAD7090E73EC18F0A7
:10280000680EDF5C07E1EEEC17F0680EDF5C1DE19F
:10281000030E18D0740EDF5C17E07A0EDF5C14E054
:10282000480EDF5C06E0540EDF5C03E05A0EDF5C0E
:1028300002E1020E07D06C0EDF5C03E06A0EDF5C83
:1028400004E1010EC6EC18F0C9DBDF506E0A01E1AD
:102850007FD31E0A01E192D1200A01E18FD13F0A04
:1028600001E149D11A0A01E146D10D0A01E143D142
:10287000200A01E140D13A0A01E13DD1200A01E1FB
:102880003AD1260A01E135D10D0A01E132D11A0A05
:1028900001E1D9D0200A4AE0300A1FE0460A0EE0E2
:1028A000250A01E083D3D950F90FE96EFF0EDA2033
:1028B000EA6E010EEE5E000EEE5AEE5AD4EC18F0FF
:1028C000250EE66E95DB03E1151C01E169D3D0EC22
:1028D00018F001E26BD3DB2A69D3080EDB6A040E21
:1028E000DB50010806E2040EDB0498EC18F0DB5024
:1028F0008BDB080EDB5009E0030EDB50010B05E11A
:1029000072DB01E04DD3080EDB6A64DBEFCFDFFF43
:1029100048EC19F003E1151C01E142D3D0EC18F0AA
:1029200001E3DB2A60DB01E141D33AD3070EDB5040
:1029300002080FE114EC19F0030EDBEC18F00E0E98
:10294000EECFDBFF0F0EEECFDBFF100EEECFDBFF87
:1029500020D0F70EDBCF17F0F80EDBCF18F0020E09
:10296000175E000E185AF70E17C0DBFFF80E18C0DE
:10297000DBFF17C0E9FF18C0EAFFCBEC18F0166ABE
:102980000E0E14C0DBFF0F0E15C0DBFF100E16C0BD
:10299000DBFF0E0EDBCFE6FF0F0EDBCFE6FF100EE8
:1029A000DBCFE6FFDEEC28F0E552E552E552130EF0
:1029B00007C0DBFF140E08C0DBFF060EDB5005E08E
:1029C000130E0FEC19F001E26ADB33EC19F002E2AE
:1029D000130E37DBF6EC18F006E0040E0FEC19F0DE
:1029E00002E2050E2EDB030EDBB005D0FCDA01E0BF
:1029F000D7D2080EDB6A090EDB6A0E0EDBCFF6FFBC
:102A00000F0EDBCFF7FF100EDBCFF8FF0800F550FD
:102A1000DF6EDF5014E039EC19F011E248EC19F0E8
:102A200003E1151C01E1BCD2BBDB01E3DB2A090E8B
:102A3000DB2AD9500E0FE96E000ECBDBE7D7D3DAD5
:102A400001E1B4D2ADD2C6DA110EEECFDBFF120E29
:102A5000EDCFDBFF110EDBCFE6FF120EDBCFE6FF83
:102A6000D0EC28F0E552E552130EF3CFDBFF140E45
:102A7000F4CFDBFF060EDB5004E0130ED0DB01E2E7
:102A80000EDB33EC19F002E2130EDBDAAFDB05E00C
:102A9000040EC5DB02E2050ED4DA030EDBB005D06E
:102AA000A2DA01E07DD2080EDB6A090EDB6A110EA4
:102AB000DBCFE9FF120EDBCFEAFFEFCFDFFFDF5006
:102AC00014E0D7DB12E2E4DB03E1151C01E168D27C
:102AD00067DB01E3DB2A090EDB2A110EDB2ADBCFE1
:102AE000E9FF120EE8E3DB2AE6D77DDA01E15ED2E8
:102AF00057D2030EDB8E070EDB0410E195DB040ECC
:102B00005ADB0A0EEECFDBFF0B0EEECFDBFF0C0E17
:102B1000EECFDBFF0D0EEECFDBFF6CD0070EDB50F0
:102B200003082CE1030EDBAE0DD0B2DA020E76DA2A
:102B3000EFCF14F0156A166A176A14AE39D015680B
:102B4000166835D0F70EDBCF15F0F80EDBCF16F098
:102B5000020E155E000E165AF70E15C0DBFFF80EBA
:102B600016C0DBFF15C0E9FF16C0EAFFEFCF14F077
:102B70000A0E14C0DBFF0B0EDB6A38D0070EDB50E9
:102B8000020809E1030EDBAE04D059DB16AE10D00B
:102B90000ED055DB0DD0030EDBAE12D079DA020E6B
:102BA0003DDAF9DA166A176A15AE02D016681768A8
:102BB000E2DA0C0E16C0DBFF0D0E17C0DBFF1AD0D9
:102BC000F70EDBCF16F0F80EDBCF17F0020E165E15
:102BD000000E175AF70E16C0DBFFF80E17C0DBFF0A
:102BE00016C0E9FF17C0EAFFD6DAC5DA0C0EDB6AB9
:102BF0000D0EDB6A060EDB5005E1010EF36E050ECD
:102C0000F3CFDBFF150EDB6A160EDB6AD950370FE8
:102C1000146E000EDA20156E390E14C0DBFF3A0E6A
:102C200015C0DBFF380EDB6A080EDB6A0A0EAEDA6F
:102C3000DF50780A12E0200A10E0280A0CE0200A8F
:102C40000AE03F0A06E00D0A02E0200A08E1020E4F
:102C500005D0080E03D0080EDF26100E97DA030EFB
:102C6000DBBE02D0DB92DB94DB50800B24E08ADAFF
:102C7000D890030EEB50000A08E6000EEE5C000E42
:102C8000EE58000EEE58000EEE5815E213DA0B68FF
:102C90000C680D680E6898EC28F00A0E02C0DBFF85
:102CA0000B0E03C0DBFF0C0E04C0DBFF0D0E05C0D6
:102CB000DBFF2D0E08D0030EDBA202D02B0E03D0BB
:102CC000DBA408D0200EF36E170EF3CFDBFF150E3A
:102CD000DB2A02D0170EDB6A050EDB5003E1B7D901
:102CE00001E189D0D60E146E520E156E000E166ECE
:102CF000070EDBCF17F0186A196A1A6A17C00BF0B3
:102D000018C00CF019C00DF01AC00EF0D3D903ECA6
:102D100029F014500224F36E15500320F46E16505F
:102D20000420F86EF4CFF7FFF3CFF6FF0800090E8A
:102D3000F5CFDBFF580EDF5C0FE1610EF36E090E7D
:102D40007BD90AE3200E146E090EDBCFE7FF145087
:102D5000E75E090EE7CFDBFF070EDBCF14F0156A45
:102D6000166A176A0FDA14C00BF015C00CF016C003
:102D70000DF017C00EF0EECF06F0EECF07F0EECF5D
:102D800008F0EFCF09F003EC29F009C0EDFF08C00F
:102D9000EDFF07C0EDFF06C0EFFF390EDBCFE9FF07
:102DA000DB063A0EDBCFEAFF01E2DB06090EDBCFE2
:102DB000EFFF150EDB2A4BD995E1030EDBA61DD0E4
:102DC0006F0EDF5C06E1C1D918E3150EDB285BDA74
:102DD00014D0780EDF5C09E0580EDF5C06E0620E6E
:102DE000DF5C03E0420EDF5C08E1020EF36E160EBC
:102DF000F3CFDBFF02D0150EDB6A030EDB50100BA6
:102E00000EE0040EDBCF14F0050EDB50D880145416
:102E100006E2060EDB5003E1040EDB5034DA95D9EE
:102E20000AE2050EDBCFE7FF150EDB50E75E050E6D
:102E3000E7CFDBFF02D0050EDB6A040EDBCF14F018
:102E4000160E45D9D880145414E2160EDBCFE6FFD7
:102E5000150EDBCFE6FF040EDBCFE6FF050EDB50E1
:102E6000E552E75CE552D880E754E552D880E75454
:102E70005FD9030EDB50010B0BE1080EDB5008E0BD
:102E8000B2D801E08DD0080EDB50BED8080EDB6A48
:102E9000170EDB5007E088D9170EF1D903E1151C96
:102EA00001E17ED0160EDB5016E07ED9300EE66EC4
:102EB0009FD802E1151C74E077D9DFCFE6FF56EC0E
:102EC00028F0E552E552E552F4CF15F00001F31C6D
:102ED00002E1151C65E0050EDBCF14F0160EDB5089
:102EE000D880145409E2050EDBCFE7FF160EDB5045
:102EF000E75E050EE7CFDBFF300EE66E050ECBD9A1
:102F00004FE1390EDB2ADBCFE9FF3A0E01E3DB2A82
:102F1000DBCFEAFF090EEFCFDBFFDB500EE044D939
:102F2000090EADD902E1151C3BE0390EDB2ADBCFDF
:102F3000E9FF3A0EEDE3DB2AEBD755D831E1160E67
:102F4000DBCFE6FF080EC3D8E552E7245DD82ED0CC
:102F5000070EDB50030A1CE0010A14E0030A07E035
:102F60007BD9DBCFEEFF020EDBCFEDFF1FD0F5D814
:102F7000196A17AE02D0186819682CD8BCD819C0C5
:102F8000EEFF14D0EAD817BE186824D8B4D80ED0F3
:102F900063D9DBCFEFFF0AD07BD905E1151C03E134
:102FA000F368F46810D0FCD801E3DB2A79D975EF17
:102FB00013F0010EDBCF14F0020EDBCF15F014C0BE
:102FC000F3FF15C0F4FF3B0EE15C02E2E16AE5525B
:102FD000E16ECBD029D9020EDBEF18F061D90800E1
:102FE000F550DF6E1200200EE66E080E4BEF19F062
:102FF00056EC28F0E552E552E552F3CF14F0F4CF49
:1030000015F00001F31C1200146E156AD950010F5F
:103010004DD91450EE261550ED221200185E000E08
:10302000195AF70E18C0DBFFF80E19C0DBFF18C0E5
:10303000E9FF19C0EAFF1200DBCFF4FFF350F45CA4
:103040001200DB50E76E040EE7CFDBFF12000A0E22
:10305000DBCF14F00B0EDBCF15F00C0EDBCF16F030
:103060000D0EDBCF17F014501510161017101200AC
:10307000130EEECFDBFF140EEDCFDBFF130EDBCF15
:1030800014F0140EDBCF15F00001800E15141200A1
:10309000F70EDBCF18F0F80EDBCF19F01200050E9B
:1030A000DB50E66ED950130F01D9E552E750EE6EB2
:1030B000ED6A12000A0EDBCF06F00B0EDBCF07F035
:1030C0000C0EDBCF08F00D0EDBCF09F01200DBCFCA
:1030D000E6FF150EDBCFE6FF050EDB50E552E724D9
:1030E000E552E7241200DB50CED8010EF36E060E37
:1030F000F3CFDBFF1200EE50EFCFEAFFE96E16C010
:10310000EEFF17C0EEFF18C0EEFF1200D9CFE6FFAA
:10311000DACFE6FFE1CFD9FFE2CFDAFF1200DFCF4F
:10312000E6FFE66A3DEC29F0E552E552F350120065
:10313000E76E080EE7CFDBFF1200EECF14F0EECF04
:1031400015F0EFCF16F0176A1200050EDBCF14F062
:10315000150EDB50D88014541200010EDBCF16F090
:10316000020EDBCF17F0186A1200E552E5CFDAFF46
:10317000E7CFD9FF12000A0E14C0DBFF0B0E15C0FB
:10318000DBFF1200D9500A0F56EF19F0F36E070E4D
:10319000F3CFDBFF1200EECF14F0EFCF15F01200EB
:1031A000010EDB2A020E1200FC0EDBCFE6FFFD0E45
:1031B000DBCFE6FF1200145E000E155AF70E14C0A6
:1031C000DBFFF80E15C0DBFF14C0E9FF15C0EAFFF6
:1031D0001200DA20EA6EEF2AEECFF6FF000EEF22A1
:1031E000EECFF7FFEF22EECFF8FF1200040EDBCF99
:1031F000E6FF130EDB50E552E75C9ADFDB5004DF9D
:10320000060EDB501200090EDB500A0DF350DF24CE
:10321000D00FE76E090EE7CFDBFFEEEF17F0DB50C4
:10322000F36E050E1CEF18F0F70EDBCF14F0F80E5E
:10323000DBCF15F01200DFCFE6FFF8EF17F028DF45
:10324000030EECDE9DEF18F04AEC13F0E552E55268
:10325000E552E55200091200BDDEEE50EFCFEAFF65
:10326000E96E010E1200130EDB50F36E040E1CEF1C
:1032700018F0040EDB50F36E090E1CEF18F0DBCFD4
:10328000E6FFF8EF17F0E76E050EE7CFDBFF120061
:103290008BDF1BEF19F0DBCFE6FF86DF24EF19F0A1
:1032A000D950F90FE96EFF0EE9EF18F0E96E000E44
:0632B000DA20EA6E1200B4
:0A32B600D9CFE6FFE1CFD9FF020EE9
:1032C000E126FD0EDBCF14F0DB06FE0EDBCF15F0A2
:1032D00001E2DB061450151011E0DE6ADD6ADECF74
:1032E00014F0DDCF15F0E30E145C0D0E155805E259
:1032F000DF2A010E01E3DB2AF2D7E3D7020EE15CFD
:1033000002E2E16AE552E16EE552E7CFD9FF120031
:10331000D9CFE6FFE1CFD9FF060EE1268D92969236
:103320008D9096908D8496948A9A939A8C92DE6A68
:10333000DE6ADE6ADD6ADD52DD52D9CFE9FFDACF1F
:10334000EAFF640EEE5C000EEE58000EEE58000E22
:10335000EE580AE2D9CFE9FFDACFEAFFEE2A000EF3
:10336000EE22EE22EE22E9D78C82DE6ADE6ADE6A87
:10337000DD6ADD52DD52D9CFE9FFDACFEAFF640E14
:10338000EE5C000EEE58000EEE58000EEE580AE20B
:10339000D9CFE9FFDACFEAFFEE2A000EEE22EE22C5
:1033A000EE22E9D7AE0EE66E70D8E552DB0EE66E81
:1033B0006CD8E552230EE66E68D8E552D90EE66E5B
:1033C00064D8E552220EE66E60D8E552A10EE66E94
:1033D0005CD8E552C80EE66E58D8E552DA0EE66EB5
:1033E00054D8E552120EE66E50D8E552A80EE66E9D
:1033F0004CD8E5523F0EE66E48D8E552D50EE66E43
:1034000044D8E552A00EE66E40D8E552810EE66E35
:103410003CD8E552600EE66E38D8E552D30EE66E23
:1034200034D8E552E66A31D8E552A60EE66E2DD8BC
:10343000E552AD0EE66E29D8E5528B0EE66E25D824
:10344000E552AF0EE66E21D8E5520A0EE66EE66A48
:1034500032DFE552E552A40EE66E17D8E552400E73
:10346000E66E13D8E552020EE66E0FD8E552100E46
:10347000E66E0BD8E552060EE15C02E2E16AE55227
:10348000E16EE552E7CFD9FF1200D9CFE6FFE1CFD9
:10349000D9FF956AFE0EDB508C6E8D808D828A9AE4
:1034A0008D948D928D828D849568E552E7CFD9FFFA
:1034B0001200D9CFE6FFE1CFD9FF956AFE0EDB50AF
:1034C0008C6E8D808D828A8A8D948D928D828D8472
:1034D0009568E552E7CFD9FF1200D9CFE6FFE1CFDB
:1034E000D9FF020EE126B00EDF6EB80EDF5C23E2DC
:1034F000DFCFE6FFCADFE552020EE66EC6DFE55219
:10350000100EE66EC2DFE552010EDB6ADB50146E70
:10351000156AD890155004E6840E145C000E1558F8
:1035200008E2FE0EDBCFE6FFC4DFE552010EDB2A28
:10353000EDD7DF2ADAD7020EE15C03E200D0E16AC0
:10354000E552E16EE552E7CFD9FF1200D9CFE6FF91
:10355000E1CFD9FFE652200E146EFE0EDBCFE7FF5F
:103560001450E75EFE0EE7CFDBFFFD0EDBCFE6FF7C
:103570008CDFE552020E146EFC0EDBCFE7FF145019
:10358000E726FC0EE7CFDBFFDB500F0BE66E7DDF9F
:10359000E552FC0EDB380F0B0F0B100FE66E75DFDC
:1035A000E552FE0EDBCFF6FFF76AF6BEF768050EB2
:1035B000F702F3CFF7FFF602F3CFF6FFF450F7264A
:1035C000F00EF626490EF7220800F550E66E71DF80
:1035D000E552FE0EDBCFF6FFF76AF6BEF768050E82
:1035E000F702F3CFF7FFF602F3CFF6FFF450F7261A
:1035F000F00EF626490EF722010EF626000EF722EF
:103600000800F550E66E55DFE552FE0EDBCFF6FF03
:10361000F76AF6BEF768050EF702F3CFF7FFF6027A
:10362000F3CFF6FFF450F726F00EF626490EF722F8
:10363000020EF626000EF7220800F550E66E39DF7E
:10364000E552FE0EDBCFF6FFF76AF6BEF768050E11
:10365000F702F3CFF7FFF602F3CFF6FFF450F726A9
:10366000F00EF626490EF722030EF626000EF7227C
:103670000800F550E66E1DDFE552FE0EDBCFF6FFCB
:10368000F76AF6BEF768050EF702F3CFF7FFF6020A
:10369000F3CFF6FFF450F726F00EF626490EF72288
:1036A000040EF626000EF7220800F550E66E01DF44
:1036B000E552E66AFEDEE55200D0E552E552E7CF7C
:1036C000D9FF1200D9CFE6FFE1CFD9FFE652200E95
:1036D000146EFE0EDBCFE7FF1450E75EFE0EE7CF61
:1036E000DBFFFD0EDBCFE6FFD0DEE552020E146EEF
:1036F000FC0EDBCFE7FF1450E726FC0EE7CFDBFF25
:10370000DB500F0BE66EC1DEE552FC0EDB380F0B13
:103710000F0B100FE66EB9DEE552FE0EDBCFF6FFA3
:10372000F76AF6BEF768050EF702F3CFF7FFF60269
:10373000F3CFF6FFF450F726F00EF626490EF722E7
:103740000800F51CE66EB5DEE552FE0EDBCFF6FF97
:10375000F76AF6BEF768050EF702F3CFF7FFF60239
:10376000F3CFF6FFF450F726F00EF626490EF722B7
:10377000010EF626000EF7220800F51CE66E99DE13
:10378000E552FE0EDBCFF6FFF76AF6BEF768050ED0
:10379000F702F3CFF7FFF602F3CFF6FFF450F72668
:1037A000F00EF626490EF722020EF626000EF7223C
:1037B0000800F51CE66E7DDEE552FE0EDBCFF6FF5F
:1037C000F76AF6BEF768050EF702F3CFF7FFF602C9
:1037D000F3CFF6FFF450F726F00EF626490EF72247
:1037E000030EF626000EF7220800F51CE66E61DED9
:1037F000E552FE0EDBCFF6FFF76AF6BEF768050E60
:10380000F702F3CFF7FFF602F3CFF6FFF450F726F7
:10381000F00EF626490EF722040EF626000EF722C9
:103820000800F51CE66E45DEE552E66842DEE5522C
:1038300000D0E552E552E7CFD9FF1200D9CFE6FF1D
:10384000E1CFD9FFE652FB0EDB50DF6EFC0EDB5002
:10385000B10FE76EFC0EE7CFDBFFFD0EDBCFF6FF0F
:10386000FE0EDBCFF7FF0800F5501AE0DFCFE6FFD2
:10387000FC0EDBCFE6FFFD0EDBCFF6FFFE0EDBCF4F
:10388000F7FF0800F550E66E61DEE552E552E552BD
:10389000FD0EDB2AFE0E01E3DB2A060EDF26DDD756
:1038A000E552E552E7CFD9FF1200D9CFE6FFE1CFCD
:1038B000D9FFE652FB0EDB50DF6EFC0EDB50B10F82
:1038C000E76EFC0EE7CFDBFFFD0EDBCFF6FFFE0E53
:1038D000DBCFF7FF0800F5501AE0DFCFE6FFFC0E64
:1038E000DBCFE6FFFD0EDBCFF6FFFE0EDBCFF7FFF3
:1038F0000800F550E66EE6DEE552E552E552FD0EB3
:10390000DB2AFE0E01E3DB2A060EDF26DDD7E552B9
:10391000E552E7CFD9FF1200D9CFE6FFE1CFD9FFBB
:10392000E652FB0EDB50DF6EFC0EDB50B10FE76E94
:10393000FC0EE7CFDBFFFD0EDBCFE9FFFE0EDBCF9A
:10394000EAFFEF5019E0DFCFE6FFFC0EDBCFE6FF2A
:10395000FD0EDBCFE9FFFE0EDBCFEAFFEF50E66E98
:10396000F5DDE552E552E552FD0EDB2AFE0E01E3E0
:10397000DB2A060EDF26DFD7E552E552E7CFD9FF77
:103980001200D9CFE6FFE1CFD9FFE652FB0EDB50A4
:10399000DF6EFC0EDB50B10FE76EFC0EE7CFDBFFF6
:1039A000FD0EDBCFE9FFFE0EDBCFEAFFEF5019E0A3
:1039B000DFCFE6FFFC0EDBCFE6FFFD0EDBCFE9FF3E
:1039C000FE0EDBCFEAFFEF50E66E7CDEE552E552FD
:1039D000E552FD0EDB2AFE0E01E3DB2A060EDF2692
:1039E000DFD7E552E552E7CFD9FF1200D9CFE6FF86
:1039F000E1CFD9FF050EE126030EDB6A040EDB6A78
:103A0000020E146EFA0EDBCFE7FF1450E726FA0E13
:103A1000E7CFDBFFF90EDB50B00FDF6EFB0EDB50A4
:103A2000B00FDF5C35E2DFCFE6FF2FDDE552FA0EA7
:103A3000DB500F0BE66E29DDE552FA0EDB380F0B7B
:103A40000F0B1009E66E21DDE552010EDB6AFC0E5C
:103A5000DB50F36E010EDBCFF4FFF350F45C16E2A3
:103A6000030EDB2A040E01E3DB2AFD0EDBCFF6FF9B
:103A7000DB2AFE0EDBCFF7FF01E3DB2A0800F5505F
:103A8000E66E17DDE552010EDB2AE1D7DF2AC6D745
:103A9000050EE15C03E200D0E16AE552E16EE55219
:063AA000E7CFD9FF120080
:0A3AA600D9CFE6FFE1CFD9FF070EEC
:103AB000E1260A0E0E01A01901E1A15101E18ED209
:103AC000090E0E01A01901E1A15101E186D2080EF3
:103AD0000E01A01901E1A15101E15AD2070E0E0118
:103AE000A01901E1A15101E141D2060E0E01A01978
:103AF00001E1A15101E11AD2050E0E01A01901E167
:103B0000A15101E1FBD0040E0E01A01901E1A15168
:103B100001E1EBD0030E0E01A01901E1A15101E179
:103B200085D0020E0E01A01901E1A15176E0010E2F
:103B30000E01A01901E1A1510BE00E01A05101E11C
:103B4000A15101E050D20E01A02B000EA1234CD2B6
:103B500088EC19F0E66A6DEC1AF0E552E66AE66A5E
:103B6000A10EE66E4E0EE66E1EEC1CF0E552E5521E
:103B7000E552E552E66A010EE66E8B0EE66E4E0EDB
:103B8000E66E1EEC1CF0E552E552E552E552E66A9F
:103B9000020EE66E750EE66E4E0EE66E1EEC1CF024
:103BA000E552E552E552E552E66A030EE66E5F0E17
:103BB000E66E4E0EE66E1EEC1CF0E552E552E55246
:103BC000E552E66A040EE66E490EE66E4E0EE66EAD
:103BD0001EEC1CF0E552E552E552E552E66A050E90
:103BE000E66E750EE66E4E0EE66E1EEC1CF0E552AD
:103BF000E552E552E552E66A060EE66E330EE66ED3
:103C00004E0EE66E1EEC1CF0E552E552E552E55212
:103C1000020E0E01A06FA16BE7D134EC20F0010879
:103C200004E1030E0E01A06FA16BDED1E66AE66A25
:103C30001D0EE66E4E0EE66E1EEC1CF0E552E552D1
:103C4000E552E552E66A010EE66E070EE66E4E0E8E
:103C5000E66E1EEC1CF0E552E552E552E552E66ACE
:103C6000020EE66EF10EE66E4D0EE66E1EEC1CF0D8
:103C7000E552E552E552E552E66A030EE66EDB0ECA
:103C8000E66E4D0EE66E1EEC1CF0E552E552E55276
:103C9000E552E66A040EE66EC50EE66E4D0EE66E61
:103CA0001EEC1CF0E552E552E552E552E66A050EBF
:103CB000E66E750EE66E4E0EE66E1EEC1CF0E552DC
:103CC000E552E552E552E66A060EE66EAF0EE66E86
:103CD0004D0EE66E1EEC1CF0E552E552E552E55243
:103CE000040E0E01A06FA16B7FD134EC20F001080F
:103CF00004E1050E0E01A06FA16B76D19FEC20F0C0
:103D0000E76E060EE7CFDBFF060EDB5002080DE183
:103D10000E01A33504E2A2510008000EA35504E2EF
:103D20000E01A207000EA35B11D0060EDB040EE10C
:103D3000030E0E01A3AF02D0D89003D0A25D000EF7
:103D4000A35904E20E01A22B000EA323E66AE66A41
:103D50009A0EE66E4D0EE66E1EEC1CF0E552E55234
:103D6000E552E552E66A020EE66E9A0EE66E4D0EDA
:103D7000E66E1EEC1CF0E552E552E552E552E66AAD
:103D8000040EE66E9A0EE66E4D0EE66E1EEC1CF00C
:103D9000E552E552E552E5520E01A251A3110EE1A2
:103DA000E66A010EE66E840EE66E4D0EE66E55EC8A
:103DB0001CF0E552E552E552E5520DD0E66A010EDF
:103DC000E66E840EE66E4D0EE66E1EEC1CF0E552BD
:103DD000E552E552E5520E01010EA21901E1A3518F
:103DE0000EE1E66A030EE66E6E0EE66E4D0EE66EB0
:103DF00055EC1CF0E552E552E552E5520DD0E66A6D
:103E0000030EE66E6E0EE66E4D0EE66E1EEC1CF0B8
:103E1000E552E552E552E5520E01020EA21901E10A
:103E2000A3510EE1E66A050EE66E580EE66E4D0EE3
:103E3000E66E55EC1CF0E552E552E552E5520DD028
:103E4000E66A050EE66E580EE66E4D0EE66E1EEC48
:103E50001CF0E552E552E552E552E66A060EE66EC2
:103E60009A0EE66E4D0EE66E1EEC1CF0E552E55223
:103E7000E552E552E66AE2EC22F0E552DE52F3CF7B
:103E8000DEFFF4CFDDFFDD52010EDBCF14F0020EBA
:103E9000DBCF15F0580E145C020E155846E2020EE8
:103EA0000E01A21901E1A3513EE0010E0E01A2197B
:103EB00001E1A35125E00E01A25101E1A35101E06E
:103EC00034D0060E0E01A06FA16BE66AE66A080EFA
:103ED000E66E800EE66E380EE66E100EE66EF6ECBE
:103EE0001CF0146E060EE15E1450640EE66EE66A77
:103EF0005BEC19F0E552E5520E01A26BA36B15D0F5
:103F0000090E0E01A06FA16B640EE66EE66A5BEC13
:103F100019F0E552E552E66A6DEC1AF0E5520E0131
:103F2000A26BA36B02D0FF0000D05ED0E66AE2EC89
:103F300022F0E552DE52F3CFDEFFF4CFDDFFDD529B
:103F4000010EDBCF14F0020EDBCF15F0580E145C1F
:103F5000020E15580AE2EFEC0FF0070E0E01A06FEB
:103F6000A16BE66A6DEC1AF0E5523ED00E017A5173
:103F700005E1080E0E01A06FA16B09D029EC10F02D
:103F8000020EE66EE66A5BEC19F0E552E5522CD0C3
:103F9000E66AE2EC22F0E552DE52F3CFDEFFF4CF28
:103FA000DDFFDD52010EDBCF14F0020EDBCF15F08A
:103FB000580E145C020E15580FE2E66A6DEC1AF00A
:103FC000E552050E0E01A06FA16B640EE66EE66A67
:103FD0005BEC19F0E552E55207D006D0E6686DECCF
:103FE0001AF0E55201D000D0070EE15C02E2E16A6E
:103FF000E552E16EE552E7CFD9FF1200D9CFE6FFD7
:10400000E1CFD9FF020EE126580EDE6E020EDD6E04
:1040100088EC19F00F0EC1129B8CDFCF14F0DF0675
:10402000010EDBCF15F001E2DB061450151001E0A4
:10403000F4D70F0148694969E66A6DEC1AF0E55258
:104040007FEC21F0DFEC22F04AEC23F0020EE15C81
:1040500002E2E16AE552E16EE552E7CFD9FF1200D4
:08406000CDDF21DDFED71200C7
:0840680081B01FD00E0182CED1
:1040700014F083CE15F084CE16F085CE17F0822B87
:10408000000E832384238523D880D00E1454070E7A
:104090001554000E1654000E175406E2826B836B03
:1040A000846B856B010E816F11D00E0181050EE1CD
:1040B000825183118411851104E1816B010E08D0B6
:1040C00005D08207000E835B845B855B000E00D009
:1040D0001200D9CFE6FFE1CFD9FFFD0EDBCF14F000
:1040E000FE0EDBCF15F0BC0E145C020E15580BE370
:1040F000FB0EDBCF16F0FC0EDBCF17F0BC0E165C10
:10410000020E175816E2FD0EDBCF14F0FE0EDBCFC9
:1041100015F0FB0EDBCF16F0FC0EDBCF17F01650C0
:10412000145C1750155803E2010E05D004D0020E9E
:1041300002D0000E00D0E552E7CFD9FF1200D9CF50
:10414000E6FFE1CFD9FF0E0EE126040EDB6AD9505F
:10415000050FE96EDACFEAFFEE6AEE6AEE6AEE6A02
:10416000EE6AEE6AEE6AEE6AEE6A010EE66EE2EC66
:1041700022F0E552F3CFDEFFF4CFDDFF020EE66E54
:10418000E2EC22F0E552020EF3CFDBFF030EF4CF98
:10419000DBFF020EDBCFE6FF030EDBCFE6FFDECF59
:1041A000E6FFDDCFE6FF95DFE552E552E552E55249
:1041B0000E017B6F010EDE6EDD6ADECFE6FFDDCF26
:1041C000E6FFB70E146E4E0E156E166A14C0E6FFAB
:1041D00015C0E6FF16C0E6FFD950040FE66E000ECC
:1041E000DA20E66E5EEC27F0176E070EE15E1750E0
:1041F000E66A060EE66ED950040FE66E000EDA206F
:10420000E66E1EEC1CF0E552E552E552E5520E0159
:104210007B5110E07E510EE1010E7E6F020EDBCF6E
:1042200014F0030EDBCF15F01450DE5C7C6F1550DC
:10423000DD587D6F7B5103E17E6B000E54D07E51C3
:1042400028E0DECF18F0DDCF19F0020EDB50185C4D
:10425000166E030EDB501958176E16507C5D146EE7
:1042600017507D59156E153404E214506408000E81
:1042700015540FE2020EDBCF14F0030EDBCF15F066
:104280001450DE5C7C6F1550DD587D6F020E2BD014
:104290002AD07E5128E0DECF18F0DDCF19F0020ED3
:1042A000DB50185C166E030EDB501958176E165053
:1042B0007C5D146E17507D59156ED880155004E73B
:1042C0009C0E145CFF0E15580EE2020EDBCF14F0AC
:1042D000030EDBCF15F01450DE5C7C6F1550DD58FB
:1042E0007D6F010E00D0146E0E0EE15C02E2E16AF9
:0E42F000E552E16E1450E552E7CFD9FF1200FF
:0242FE00D9CF16
:10430000E6FFE1CFD9FF030EE12659D8736A820E8A
:10431000726E739C94949396958C7288728A949E14
:10432000E66AD0D8E552E76E020EE7CFDBFF000069
:10433000D950020FE96EDACFEAFFEF50070B0208FF
:1043400001E00000140EE66EBDD8E552E76E020EE5
:10435000E7CFDBFF020EDB96DB88020EDB80DB9211
:10436000DB94020EDBCFE6FF140EE66E3AD8E55280
:10437000E552010EE66EA6D8E552DE6EDD6A00005B
:10438000110EE66E9FD8E552DE6EDD6A0000E66A29
:10439000110EE66E26D8E552E5520000110EE66ECB
:1043A00091D8E552DE6EDD6A0000030EE15C02E2A8
:1043B000E16AE552E16EE552E7CFD9FF1200550EF2
:1043C000A76EAA0EA76E0E01FF91090ECC6F0A0E02
:1043D000D36F170EFB6F550EA76EAA0EA76EFF8147
:1043E0001200D9CFE6FFE1CFD9FFE652DF6AFE0E19
:1043F000DB50140804E0FE0EDB50340806E1140E16
:10440000E66E60D8E552E00BDF6E8B9EA49EFE0E3A
:10441000DB50756EA4AEFED7000000000000000067
:10442000000000000000000000000000000000008C
:10443000000000000000000000000000000000007C
:10444000000000000000000000000000000000006C
:10445000000000000000000000000000000000005C
:10446000000000000000000000000000000000004C
:10447000000000000000000000000000000000003C
:10448000000000000000000000000000000000002C
:104490000000000000000000A49EFE0EDB500A0891
:1044A00005E1FD0EDB507F0B756E04D0FD0EDB5079
:1044B000DF10756EA4AEFED78B8EE552E552E7CFC6
:1044C000D9FF1200D9CFE6FFE1CFD9FF8B9EA49E82
:1044D000FE0EDB508009756EA4AEFED70000000012
:1044E00000000000000000000000000000000000CC
:1044F00000000000000000000000000000000000BC
:1045000000000000000000000000000000000000AB
:10451000000000000000000000000000000000009B
:10452000000000000000000000000000000000008B
:10453000000000000000000000000000000000007B
:10454000000000000000000000000000000000006B
:10455000000000000000000000000000A49E756A3A
:10456000A4AEFED78B8E755000D0E552E7CFD9FFB1
:02457000120037
:0E457200030EB16EB392B390B396B288B28EC0
:10458000B290B292A494B38E12002F0E926E0F01CD
:10459000E00E486F1F0E496FC18EC19CC70EC1143B
:1045A0000809C16EF80EC1140209C16E498FC29C80
:1045B000C29EC30EC2140809C26EC2801200D9DFA7
:1045C000C5EF22F0D9CFE6FFE1CFD9FF020EE126F9
:1045D000FE0EDB500F0BF36EF346F346C30EC21410
:1045E000F310C26EFE0EDB50EA6AFB0FE96E000E9E
:1045F000EA22EF503F0BF36EF346F346030EB1147D
:10460000F310B16EB38EB382000000000000000012
:10461000000000000000000000000000000000009A
:10462000000000000000000000000000000000008A
:10463000B392B28000000000000000000000000003
:10464000000000000000000000000000000000006A
:10465000000000000000000000000000B2909E9CDE
:10466000C2829EACFED7C3CFDEFFC4CFDDFFDECF5C
:1046700014F0DDCF15F014C0F3FF15C0F4FF00D027
:10468000020EE15C02E2E16AE552E16EE552E7CF3B
:10469000D9FF1200D9CFE6FFE1CFD9FF030EE12603
:1046A000020EDB6A040EF36E020EDBCFF4FFF35052
:1046B000F45C01E383D0020EDB50EA6AFB0FE96E83
:1046C000000EEA22EF6A020EDBCFE6FF7BDFE55247
:1046D000F3CFDEFFF4CFDDFFDECF14F0DDCF15F03A
:1046E000200E145C030E15582EE2020EDB50EA6A0F
:1046F000FB0FE96E000EEA22EF501F0809E1020EDF
:10470000DB50EA6AFB0FE96E000EEA22EF6A1AD06C
:10471000020EDB50EA6AFB0FE96E000EEA22EF2A76
:10472000020EDBCFE6FF4EDFE552F3CFDEFFF4CF24
:10473000DDFFDECF14F0DDCF15F0200E145C030E8C
:104740001558D3E338D0D9CFE9FFDACFEAFF200EEE
:10475000D880EE54030EED542EE2020EDB50EA6ACE
:10476000FB0FE96E000EEA22EF50E10809E1020EAC
:10477000DB50EA6AFB0FE96E000EEA22EF6A1BD0FB
:10478000020EDB50EA6AFB0FE96E000EEA22EF062A
:10479000020EDBCFE6FF16DFE552F3CFDEFFF4CFEC
:1047A000DDFFD9CFE9FFDACFEAFF200ED880EE5443
:1047B000030EED54D2E3020EDB2A74D7030EE15C44
:1047C00002E2E16AE552E16EE552E7CFD9FF12005D
:1047D000D9CFE6FFE1CFD9FF956AFE0EDB508C6E94
:1047E0008D928D82EE0EE66E45EC1AF0E552E552A2
:1047F000E7CFD9FF1200D9CFE6FFE1CFD9FFE652CC
:10480000E00EE66E45EC1AF0E5528A8A8D828D80C4
:104810008D948D9000000000000000008350DF6E3A
:104820008D808D9000000000000000008350DF6E3E
:104830008D80DF5000D0E552E552E7CFD9FF12005E
:10484000D9CFE6FFE1CFD9FF020EE126FE0EDB5005
:10485000020FDF6E0F0EDF14E66E45EC1AF0E55224
:10486000DF380F0B0F0B100FE66E45EC1AF0E55218
:10487000FD0EDB40E840E8401F0B070BB009E66E79
:1048800045EC1AF0E552B7DFE76E010EE7CFDBFF2C
:10489000FC0EDB5015E0010EDBCFE6FFFD0EDB501A
:1048A000070B146E010E145204E0E846FE0B1406CA
:1048B000FCE1E552E710E76E010EE7CFDBFF19D010
:1048C000010EDBCFE6FFFD0EDB50070B146E010E71
:1048D000145204E0E846FE0B1406FCE1000902E075
:1048E000000E01D0010EE552E714E76E010EE7CF8E
:1048F000DBFFDBCFE6FF6CDFE552020EE15C03E29B
:1049000000D0E16AE552E16EE552E7CFD9FF12002F
:10491000D9CFE6FFE1CFD9FF010EE66EFE0EDBCF69
:10492000E6FFFD0EDBCFE6FF1AD8E552E552E55271
:10493000E552E7CFD9FF1200D9CFE6FFE1CFD9FF8B
:10494000E66AFE0EDBCFE6FFFD0EDBCFE6FF07D803
:10495000E552E552E552E552E7CFD9FF1200D9CF33
:10496000E6FFE1CFD9FF020EE126FE0EDB50100874
:1049700035E3FD0EDB50080831E3FD0EDB50B009D6
:10498000E66E45EC1AF0E552FE0EDB50080D010E06
:10499000F3CFDBFFDF6E070EDF5C20E2010EDB2AC8
:1049A000DB500F0BE66E45EC1AF0E552010EDB38DA
:1049B0000F0B0F0B1009E66E45EC1AF0E552FC0EDA
:1049C000DB5006E07E0EE66E59EC1AF0E55204D09C
:1049D000E66A59EC1AF0E552DF2ADDD7020EE15CF7
:1049E00002E2E16AE552E16EE552E7CFD9FF12003B
:1049F000000000000000004F000000070007001446
:104A00007F147F14242A7F2A1223130864623649F4
:104A10005522500005030000001C224100004122E5
:104A20001C0014083E081408083E08080050300016
:104A30000008080808080060600000201008040250
:104A40003E5149453E00427F400042615149462166
:104A500041454B311814127F1027454545393C4AD2
:104A60004949300171090503364949493606494922
:104A7000291E003636000000563600000814224178
:104A800000141414141400412214080201510906E0
:104A9000324979413E7E1111117E7F494949363EA6
:104AA000414141227F4141221C7F494949417F09BF
:104AB0000909013E4149497A7F0808087F00417F82
:104AC00041002040413F017F081422417F40404087
:104AD000407F020C027F7F0408107F3E4141413E2F
:104AE0007F090909063E4151215E7F091929464681
:104AF0004949493101017F01013F4040403F1F20AA
:104B000040201F3F4038403F63140814630708707B
:104B100008076151494543007F41410002040810E4
:104B2000200041417F000402010204404040404017
:104B3000000102040020545454787F48444438381B
:104B400044444420384444487F3854545418087E20
:104B50000901020C5252523E7F0804047800447D41
:104B600040002040443D007F1028440000417F4029
:104B7000007C041804787C080404783844444438E1
:104B80007C14141408081414187C7C0804040848C5
:104B900054545420043F4440203C4040207C1C207E
:104BA00040201C3C4030403C44281028440C5050CD
:104BB000503C4464544C44000836410000007F00DF
:0B4BC000000041360800020102040260
:044BCC00D9CFE6FF58
:104BD000E1CFD9FF030EE66E62EC22F0E552166ECD
:104BE00016C017F0166A16C0E6FF17C0E6FF020EE1
:104BF000E66E62EC22F0E552E552E7CF17F0E5529F
:104C0000E7CF16F000011610146E17C015F0FD0E58
:104C1000DBCFE9FFFE0EDBCFEAFF14C0EEFF15C0CD
:104C2000EDFFFD0EDBCFE9FFFE0EDBCFEAFF200E2E
:104C30000D6E0E6AEECF08F0EDCF09F0B4EC27F060
:104C400008C0EEFF09C0EDFF050EE66E62EC22F033
:104C5000E552166E16C017F0166A16C0E6FF17C0AA
:104C6000E6FF040EE66E62EC22F0E552E552E7CF75
:104C700017F0E552E7CF16F000011610146E17C0BA
:104C800015F0FD0EDBCFE9FFFE0EDBCFEAFF020ED3
:104C9000E926000EEA2214C0EEFF15C0EDFFFD0E5E
:104CA000DBCFE9FFFE0EDBCFEAFF020EE926000EA6
:104CB000EA22200E0D6E0E6AEECF08F0EDCF09F05D
:104CC000B4EC27F008C0EEFF09C0EDFF070EE66E5A
:104CD00062EC22F0E552166E16C017F0166A16C086
:104CE000E6FF17C0E6FF060EE66E62EC22F0E55224
:104CF000E552E7CF17F0E552E7CF16F000011610A6
:104D0000146E17C015F0FD0EDBCFE9FFFE0EDBCFF2
:104D1000EAFF040EE926000EEA2214C0EEFF15C0D9
:104D2000EDFFFD0EDBCFE9FFFE0EDBCFEAFF040E49
:104D3000E926000EEA22200E0D6E0E6AEECF08F074
:104D4000EDCF09F0B4EC27F008C0EEFF09C0EDFF8D
:084D5000E552E7CFD9FF120084
:084D58002020202020205155ED
:104D600049542047414D452020202020200020206C
:104D70002020202043414C494252415445202020CC
:104D8000202020002020202020204E455720204792
:104D9000414D4520202020202000202020202020C0
:104DA00020202020202020202020202020200050F3
:104DB00072657373204D656E7520746F2070726F0D
:104DC000636565640020332E2020202020456E6A14
:104DD0006F79202120202020202000202020746FA7
:104DE000206D6F766520626C6F636B732E202020C0
:104DF0000020322E2054696C742074686520626F24
:104E0000617264202020002073656C656374206DDE
:104E1000656E75206974656D732E20200020312E1B
:104E200020557365207363726F6C6C20746F202043
:104E3000202000205052455353204D454E552054BC
:104E40004F2053544152542000202047656E657214
:104E50006174656420617420495349422020002018
:104E600020506F7765726564206F6E205049433122
:104E70003846202000202020202020202020202014
:104E800020202020202020202020002042792042A5
:104E9000554C544F54202047656F666672657920E3
:104EA0000020202020205445545249532076312E92
:0B4EB000302020202020002575640029
:044EBC00D9CFE6FF65
:104EC000DACFE6FFE1CFD9FFE2CFDAFFE652E652D2
:104ED000E652E652D950F90F146EFF0EDA20156E25
:104EE000020E14C0DBFF030E15C0DBFF020EDBCF8A
:104EF000E6FF030EDBCFE6FFF90EDBCFE6FFFA0E8F
:104F0000DBCFE6FFFB0EDBCFE6FFD950FC0FE66EF2
:104F1000FF0EDA20E66E60EC13F0146E070EE15C13
:104F200002E2E16AE552E16E1450F3CFDEFFF4CF06
:104F3000DDFFFC0EDBCFE9FFFD0EDBCFEAFFEF6A02
:104F4000DECF14F0DDCF15F014C0F3FF15C0F4FF71
:104F5000040EE15C02E2E16AE552E16EE552E5CF62
:084F6000DAFFE7CFD9FF1200D0
:084F6800006A0EAEBDEF27F058
:104F70000D6C0E1EE86A0E22001E09AEC5EF27F06A
:104F8000086C091EE86A0922001E27EC29F009BEF8
:104F9000D5EF27F000AE000C086C091EE86A092264
:104FA000046C051EE86A0522000C00BECCEF27F059
:104FB0000188FF0C09C013F008C012F008500D0260
:104FC000F4CF07F0F3CF06F009500E02F4CF09F04A
:104FD000F3CF08F00D02F3500726F4500822E86AD8
:104FE000092212500E02F3500726F4500822E86AF4
:104FF00009220EAE00EF28F01250085E1350095A35
:0E50000013AE000C0D50085E0E50095A000C45
:02500E00060E8C
:10501000F66E000EF76E000EF86E0E010900F550E8
:10502000956F0900F550966F03E1956701D03DD06B
:105030000900F550906F0900F550916F0900F55087
:10504000926F09000900F550E96E0900F550EA6E0B
:10505000090009000900F550936F0900F550946F9D
:1050600009000900F6CF97FEF7CF98FEF8CF99FE1A
:1050700090CEF6FF91CEF7FF92CEF8FF0E0193533C
:1050800002E1945307E00900F550EE6E9307F8E251
:105090009407F9D797CEF6FF98CEF7FF99CEF8FF91
:0C50A0000E019507000E965BBFD71200B2
:0450AC00D9CFE6FF73
:1050B000DACFE6FFE1CFD9FFE2CFDAFFFB0EDBCF9D
:1050C00014F0FC0EDBCF15F00001800E15141AE170
:1050D000FB0EDBCFE9FFFC0EDBCFEAFFEECFF3FFE9
:1050E000EDCFF4FFEE2A000EEF22F3CFE9FFF4CF6D
:1050F000EAFFFD0EDBCFEFFFEF50156AF36E15C030
:10510000F4FF10D0FB0EDB50FE0806E1FD0EDBCFF6
:10511000E6FF5DEC29F005D0FD0EDBCFE6FF7BEC72
:1051200029F0E552E552E5CFDAFFE7CFD9FF1200CB
:1051300006500B02F3CF02F0F4CF03F00C02F35051
:105140000326000EF420046E06500D02F3500426D0
:10515000000EF420056E06500E02F350052607508F
:105160000B02F3500326F4500422000E05220750D0
:105170000C02F3500426F450052207500D02F350A0
:10518000052608500B02F3500426F450052208505F
:105190000C02F350052609500B02F35005261200AD
:1051A000FE0EE3CFE9FFFF0EE3CFEAFFF36AF46AF6
:1051B000EE5203E0F34AF42AFBD71200FF0EE3CFCE
:1051C000F8FFE552FF0EE3CFF7FFE552FF0EE3CF06
:1051D000F6FFE552E66AE66AE66A0900F55209E07A
:1051E000FD0EE32A05E1FE0EE32A02E1FF0EE32AAB
:1051F000F4D7FD0EE3CF07F0FE0EE3CF08F0FF0E6D
:06520000E3CF09F01200EB
:0A520600056A046A036A026A200EBA
:10521000E76ED8900636073608360936023603366A
:10522000043605360B50025C0C5003580D500458E0
:105230000E50055809E30B50025E0C50035A0D50F6
:0E524000045A0E50055A062AE72EE4D7120033
:02524E00056AEF
:10525000046A100EE76ED890083609360436053613
:105260000D50045C0E50055805E30D50045E0E50C1
:0A527000055A082AE72EF0D71200B5
:06527A00F36AF46AFF0E66
:10528000E124E96EFF0EE220EA6EED6607D02F0EF4
:0E529000EF6404D03A0EEF6001D0F32A120052
:02529E001DEE03
:1052A00000F02DEE00F0F86A019C07EC28F07CEC91
:0A52B00029F030EC20F0FBD71200CB
:0652BA00FF0EE350ADBA47
:1052C00004D0B06AAC8EAD8A949CADA2FED7AE6E0F
:0652D000F36EF46A120007
:0A52D60030313233343536373839C1
:0752E0006162636465660072
:0852E80000EE00F00E0EEE6A6C
:0652F000EA62FDD7120086
:0252F6001200A4
:0252F8001200A2
:0452FA0000000000B0
:0252FE000001AD
:105300000000000100000001000000010000000199
:105310000000000100000101000000000000000189
:10532000000000010000000101000000000000007A
:105330000000000101000001010000000000000069
:105340000000000101000101000000000000000059
:105350000000010101000001000000000000000049
:0E53600000000101000000010100000000003B
:02536E00FFFF3F
:0953700004000000000000000030
:07537900000000000000002D
:045380000000000029
:01FFF800AA5E
:01FFF900F710
:01FFFA001DE9
:01FFFB00FF06
:01FFFC0063A1
:01FFFD00F80B
:01FFFE008181
:01FFFF00F110
:00000001FF
