:020000040000FA
:0600000034EF28F01200AD
:0A000600040041510000EB0000006F
:100010000B000000385100007A0E000009000000BB
:10002000C8500000000E000070000000C450000026
:080030008D0E00000400000029
:08003800FF01010101010101BA
:1000400001010101010101010101010101010101A0
:100050000101010101010101010101010101010190
:100060000101010101010101010101010101010180
:100070000101010101010101010101C1F1F9FDFDD0
:10008000FDFFFF7F3F3F3F3F7FFFFFFFFDFDF9F19A
:10009000C101010101010101010101010101010190
:1000A0000101010101010101010101010101010140
:1000B00001010101010101FFFFF8F8F8F8F8F8F873
:1000C000F8F80000000000000000000000F8F8F858
:1000D000F8F8F8F8F800000000000000F8F8F8F868
:1000E000F8F8F8F8F8F8F8F8F8F8F8F8F8F8F8F890
:1000F000F8F8F8F8F800000000000003070F0F0FF1
:100100000F070380C0E0F0F8FCFFFFFF7F7F3F1F79
:1001100007000000000000F8F8F8F8F8F8F8F8F820
:10012000F8F8F8F8F8F8F8F8F8F8F8F0F0F0E0E097
:10013000C0000000000000FFFFFFFFFFFFFFFFFF08
:10014000FFFFE0E0E0E0E0E0E0E0E0E0E0FFFFFF14
:10015000FFFFFFFFFF00000000000000FFFFFFFFA8
:10016000FFFFFFFFE1E1E1E1E1E1E1E1E1E1E1E107
:10017000E1E1C10101000000000000E0E0F0F8FC56
:10018000FEFFFFFFFFDFCFC7C7C3C1C0C0C0C0C0F5
:1001900080000000000000FFFFFFFFFFFFFFFFE106
:1001A000E1E1E1E1E1E1E1E1E1F3FFFFFFFFFF7FF9
:1001B0007F1F0000000000FFFFFFFFFFFFFFFFFFAA
:1001C000FFFF0707070707070707070707FFFFFFE7
:1001D000FFFFFFFFFF00000000000000FFFFFFFF28
:1001E000FFFFFFFF070707070707070707070707BF
:1001F00007070700000000000000000707070707C7
:10020000070707070707070707070707070707077E
:1002100003000000000000FFFFFFFFFFFFFFFF0FD4
:100220000707070707070707078FFFFFFFFFFFFE07
:10023000FEFCF000000000FFFF1F3F3F3F3F3F3F3D
:100240003F1F00000000000000000000003F3F3F93
:100250003F3F3F3F3F000000000000003F3F3F3F67
:100260003F3F3F3F3F3F3F3F3F3F3F3F3F3F3F3F9E
:100270003F3F3F3F1F000000000000070707070740
:1002800007070707070707070707070707070707FE
:10029000070000000000003F3F3F3F3F3F3F3F3F20
:1002A0003F3F3F3F3F3F3F3F3F1F1F1F1F1F0F0F5E
:1002B00007030000000000FFFFF8F8F8F8F800005E
:1002C00000000080E0E0F0F0F078787878787878D6
:1002D00078F8F0F060000000000000F8F8F8F8F896
:1002E000000000000000F8F8F8F8F87878787878DE
:1002F000787870F0F0F0E0C000000000000000002E
:1003000000000000000000000000000000000000ED
:1003100000000000000000000000000000000000DD
:1003200000000000000000000000000000000000CD
:1003300000000000000000FFFFFFFFFFFFFF0000C4
:10034000000000070F1F3F3F3C38787878787870BE
:10035000F0F0F0E0C0000000000000FFFFFFFFFF32
:10036000000000000000FFFFFFFFFF78787878783A
:10037000787878FCFFFFEFC78100000000000000E4
:100380000000FEFE1E7CF080E07C0EFEFE000004FD
:1003900006FEFE00000000000000FEFE32323202C7
:1003A00000FEFE00000000FEFE0E1E78E0C0FE0013
:1003B00000000000000000FFFFFFFFFFFFFF808044
:1003C0008080B8BCFCFCFCF8F8F8F0F0F0F0F8F82D
:1003D000BFBF9F9F8F838080808080FFFFFFFFFFD4
:1003E000808080808080FFFFFFFFFFF8F8F8F8F83A
:1003F000F8F8F8BCBFBF9F9F878080808080808096
:1004000080808383808083838380808383808082D5
:1004100083838382828080808080838383838382BE
:1004200080838383838380838380808081838380B0
:1004300080808080808080FF00000000000000003D
:1004400000000000000000000000000000000000AC
:10045000000000000000000000000000000000009C
:10046000000000000000000000000000000000008C
:10047000000000000000000000000000000000007C
:1008700000000000000080808080008080808080F8
:100880008080808080808080808080808080808068
:1008900080808080808080000000000000000000D8
:1008A0000000000000000000000000000000000048
:1008B0000000000000000000000000000000000038
:1008C0000000000000000000000000000000000028
:1008D00080C0C0C0C0C0C0C0C0C0C0C0C0C0C0C058
:1008E000C0C0C0C0C0C0C0C0C0C0C0C0C0C0C0C008
:1008F000C0C0C0800000FFFFFFFF00C3E3E3E3E3ED
:10090000E3E3FBFBFBFBFBFB0303030303E3E3E387
:10091000E3E3E3FFFFFFFF7F0000000000000000B3
:1009200000000000000000000000000000000000C7
:1009300000000000000000000000000000000000B7
:1009400000000000000000000000000000000000A7
:100950007FFFFFFFFFE1E1E1E1E1E1E1E1E1E1E171
:10096000E1E1E1E1E1E1E1E1E1E1E1E1E1E1E1FF59
:10097000FFFFFF7F00001F1F1F1F1C183939393967
:100980003939393931313130707070F0F0E1E1E1ED
:10099000E1E1E1E1E1E1E0C0000000000000000071
:1009A0000000000000000000000000000000000047
:1009B0000000000000000000000000000000000037
:1009C0000000000000000000000000000000000027
:1009D00000E0E0E0E0E0E0E0E0F0F0F0F0B0B0B047
:1009E000B0B0B03838383818181818181C1C1C1C2F
:1009F0001C0C0C0CCCCCCCCECECEC6C6C6C6C6C645
:100A0000C6C7C7C7C3C3C3C3C3C3C3C3C3C3C1C1AB
:100A1000C1C1C1C1C1C1C1C10000000000000000CE
:100A200000000000000000000000000000000000C6
:100A300000000000000000000000000000000000B6
:100A400000000000000000000000000000000000A6
:100A5000E0E0E0E1E1E1E1E1E1E1E1E1E1E3E3E383
:100A6000E3E3E3E3E3E3E3E7E7E7E7E7E7070FFED3
:100A7000FEFEFE0081C1C1C1D9DDDDDDDDDDFDFD94
:100A8000FFFFFFFFFFFFF7F7F7F7F7E7E3E3E3E326
:100A9000E3E3C3C3C1C1C1C1000000000000000006
:100AA0000000000000000000000000000000000046
:100AB0000000000000000000000000000000000036
:100AC0000000000000000000000000000000000026
:100AD000BFBFBFBFBF818080808080808080808AD0
:100AE0009F9F9F9F9F80808080808080800000FFEC
:100AF000FFFFFF00F3F3F3F3F3F373737373737395
:100B000073737373F3F3F3F3F37373737373737335
:100B1000737373F3F3F3F3F30000000000000000BD
:100B200000000000000000000000000000000000C5
:100B300000000000000000000000000000000000B5
:100B400000000000000000000000000000000000A5
:100B5000C3C3E3E3E3E3E3F3F37373737B7B3B3BF5
:100B6000FBFBFBFBE3E3E3E3E3E3E3E3C30000FFBF
:100B7000FFFFFF000F0F0F0F0F0F0000000000001E
:100B80000000000007070707070000000000000042
:100B90000000000F0F0F0F0F00000000000000000A
:100BA0000000000000000000000000000000000045
:100BB0000000000000000000000000000000000035
:100BC0000000000000000000000000000000000025
:100BD0000000000000000000000000000000000015
:10106000183830F0F06060E0C0C080800000000000
:101070000000000000000000000000000000000070
:101080000000000000F0F0F0F0F0F0F0F0F0F0F010
:10109000F0F0E00000000000000000000000000090
:1010A0000000000000000000F0F0F0F000F0F0F0B0
:1010B000F000000000000000000000000000808040
:1010C0008080808080808080808000000000000020
:1010D0000000000000000000000000000000000010
:1010E000389898DFCFCCCEC6878703030000000076
:1010F000000018383838F8F838383838F8F8000070
:101100000000000000C3C3C3C3C3C3C3C3C3FFFF06
:10111000FFFFFFFEFEFEFEC0C0C0C000000000C01A
:10112000C0C0C00000000000DEDEDEDE0000000007
:1011300000000000000000000000000000000303A9
:1011400003031F3F736363733F1F00000000000031
:10115000000000000000000000C0C000000000000F
:101160007F7F43010101010101437F7E00000000F8
:1011700000006060606061E3E7666667E3E10000CD
:1011800000F8F8F8F8FF0F0F0FFFFFFFFFFFFFFF5A
:10119000FFFFFF0F0F0FFFFFFFFFFFF8F8F8F80F3B
:1011A0000F0F0F0000000000030303030000000006
:1011B0000000000000000000000000000000FE7EB3
:1011C0000606060606060606060600000000000ED5
:1011D0000E0E8E8E8E8E8E8E0E7F7F000000000093
:1011E000FCFE060707030707070EFCF800000000D7
:1011F0000000989C9C8C8E878F8C9C9C8F87000015
:10120000003F3F3F3F3F000000FFFFFFFFFFFFFFAA
:10121000FFFFFFFFFFFFFFFFFFFFFF0101010100D5
:101220000000000000000000DEDEDEDE00C0C0C006
:10123000C000000000000000000000000000038368
:1012400083FEFECECCEC7C7878380000000010FEE7
:10125000FF8383030103038387FFFC00000000007A
:10126000F9F9191818F8F8181819F9F90000000018
:101270000000BFBF8101011F1F8181813F3F00002E
:1012800000FCFCFCFCFC000000FFFFFFFFFFFFFF79
:10129000FFFFFFFFFFFFFFFFFFFFFF808080800059
:1012A00000000000000000007B7B7B7B0003030349
:1012B0000300000000000000000000000000737345
:1012C00071717170F8D8DC8C8E060000000000008F
:1012D00001030303030303030301000000000000F4
:1012E00033333030F0F131303030F3F300000000B0
:1012F00000001FBF7070783C1F0703233F3F0000B2
:10130000001F1F1F1FFFF0F0F0FFFFFFFFFFFFFF99
:10131000FFFFFFF0F0F0FFFFFFFFFF1F1F1F1FF099
:10132000F0F0F000000000000000000000E0E0E04D
:10133000E0000000000000000000000000000000CD
:101340000000000000000101030300000000000095
:10135000000000000000000000000000000000008D
:10136000808080808187878E8E8EF7F3000000005A
:1013700000003F7F6060707C1E0703037F3E00001B
:101380000000000000C3C3C3C3C3C3C3C3C3FFFF84
:10139000FFFFFF7F7F7F7F03030303000000000345
:1013A0000303030000000000BCBCBCBC003D3D3D8D
:1013B0003D000000000000000000000000000000F0
:1013C000000000000000000000000000000000001D
:1013D000000000000000000000000000000000000D
:1013E000030303030303030303031F1F00000000A1
:1013F00000000000000000000000000000000000ED
:1014000000000000000F0F0F0F0F0F0F0F0F0F0F37
:101410000F0F0700000000000000000000000000A7
:1014200000000000000000000707070700000000A0
:1014300000000000000000000000000000000000AC
:10144000000000000000000000000000000000009C
:10145000000000000000000000000000000000008C
:10146000000000000000000000000000000000007C
:08183800D9CFE6FFE1CFD9FF93
:10184000020EE126E66AE66A080EE66E800EE66E95
:10185000380EE66E000EE66EDBEC1BF0146E060E24
:10186000E15E1450E80EE66E030EE66E40EC18F0F2
:10187000E552E552DF6ADF50146E156AD8901550B4
:1018800004E6800E145C000E15581AE2010EDB6AA5
:10189000400EF36E010EDBCFF4FFF350F45C0EE26A
:1018A000E66A010EDBCFE6FFDFCFE6FF05EC23F0B3
:1018B000E552E552E552010EDB2AEAD7DF2ADBD7F3
:1018C000320EE66EE66A40EC18F0E552E552020E82
:1018D000E15C02E2E16AE552E16EE552E7CFD9FF51
:1018E0001200D9CFE6FFE1CFD9FF0B0EE126DE6A69
:1018F000DD6A020EDB6A030EDB6A010EF36E040E74
:10190000F3CFDBFF7ACEE6FF7BCEE6FF7CCEE6FFB1
:101910007DCEE6FF7ECE14F07FCE15F0D890143643
:101920001536E806FBE1000E14260E0E152214C033
:10193000E6FF15C0E6FF8EDB166E060EE15E165062
:10194000010E0E01156A7A25146E7B51152214C002
:10195000E6FF15C0E6FF7CCEE6FF7DCEE6FF7ECE3D
:1019600016F07FCE17F0040ED89016361736E8061C
:10197000FBE1000E16260E0E172216C0E6FF17C05A
:10198000E6FF10EC11F0186E060EE15E185000092B
:1019900026E00E017A2B000E7B237ACEE6FF7BCE6B
:1019A000E6FF7CCEE6FF7DCEE6FF7ECE14F07FCE56
:1019B00015F0040ED89014361536E806FBE1000E3B
:1019C00014260E0E152214C0E6FF15C0E6FF63DBD9
:1019D000166E060EE15E1650010EFCD01FD07ACEB8
:1019E000E6FF7BCEE6FF7CCEE6FF7DCEE6FF7ECE39
:1019F00014F07FCE15F0040ED89014361536E80694
:101A0000FBE1000E14260E0E152214C0E6FF15C0D1
:101A1000E6FF41DB166E060EE15E1650100EF36E09
:101A2000070EF3CFDBFF080EDB6A070EDBCF14F0E7
:101A3000080EDBCF15F0153404E214500008000E38
:101A4000155401E3C4D0010EF36E040EF3CFDBFF97
:101A5000050EDB6A060EDB6A050EDBCF14F0060E00
:101A6000DBCF15F0D890155004E6080E145C000E7C
:101A7000155822E2070EDBCF14F0080EDBCF15F06D
:101A8000030ED89014361536E806FBE1600E1426D6
:101A9000000E1522050EDB501424E96E060EDB50F5
:101AA0001520EA6EEF5002E1040EDB6A050EDB2A18
:101AB000060E01E3DB2AD0D7040EDB5001E17CD017
:101AC000020EDB2A030E01E3DB2ADF2A010E01E30B
:101AD000DB2A070EDBCF08F0080EDBCF09F0090E7A
:101AE00008C0DBFF0A0E09C0DBFF090EDBCF14F0D4
:101AF0000A0EDBCF15F0D890155004E60F0E145CDB
:101B0000000E155859E2050EDB6A060EDB6A050E5B
:101B1000DBCF14F0060EDBCF15F0D890155004E69D
:101B2000080E145C000E155841E2010EE76E090E16
:101B3000DBCF16F00A0EDBCF17F0E7501626000EAB
:101B40001722030ED89016361736E806FBE1600E12
:101B50001626000E1722050EDB501624E96E060E1F
:101B6000DB501720EA6EEF50E66E090EDBCF14F063
:101B70000A0EDBCF15F0030ED89014361536E806A2
:101B8000FBE1600E1426000E1522050EDB50142416
:101B9000E96E060EDB501520EA6EE552E750EF6E57
:101BA000050EDB2A060E01E3DB2AB1D7090EDB2A7C
:101BB0000A0E01E3DB2A99D7010EF36E040EF3CF70
:101BC000DBFF070EDB06080E01E2DB062ED7E4D8AA
:101BD000000E00D0146E0B0EE15C02E2E16AE552E9
:101BE000E16E1450E552E7CFD9FF12007ACEE6FF3E
:101BF0007BCEE6FF7CCEE6FF7DCEE6FF7ECE14F008
:101C00007FCE15F0040ED89014361536E806FBE1A9
:101C1000000E14260E0E152214C0E6FF15C0E6FFB6
:101C200019DA166E060EE15E16507ACEE6FF7BCE0E
:101C3000E6FF010E0E01156A7C25146E7D511522FA
:101C400014C0E6FF15C0E6FF7ECE16F07FCE17F07B
:101C5000040ED89016361736E806FBE1000E16265D
:101C60000E0E172216C0E6FF17C0E6FFD9DA186E6F
:101C7000060EE15E1850000904E00E017C2B000EF8
:101C80007D237ACEE6FF7BCEE6FF7CCEE6FF7DCEDF
:101C9000E6FF7ECE14F07FCE15F0040ED8901436F9
:101CA0001536E806FBE1000E14260E0E152214C0B0
:101CB000E6FF15C0E6FFEFD9166E060EE15E165080
:101CC00012007ACEE6FF7BCEE6FF7CCEE6FF7DCE2D
:101CD000E6FF7ECE14F07FCE15F0040ED8901436B9
:101CE0001536E806FBE1000E14260E0E152214C070
:101CF000E6FF15C0E6FFAED9166E060EE15E165081
:101D00007ACEE6FF7BCEE6FF7CCE14F07DCE15F0DA
:101D10001406000E155A14C0E6FF15C0E6FF7ECE6D
:101D200016F07FCE17F0040ED89016361736E80658
:101D3000FBE1000E16260E0E172216C0E6FF17C096
:101D4000E6FF6EDA186E060EE15E1850000904E038
:101D50000E017C07000E7D5B7ACEE6FF7BCEE6FFB0
:101D60007CCEE6FF7DCEE6FF7ECE14F07FCE15F072
:101D7000040ED89014361536E806FBE1000E142642
:101D80000E0E152214C0E6FF15C0E6FF84D9166EAC
:101D9000060EE15E165012000E017E2B000E7F2310
:101DA000070E0D6E0E6A7ECE08F07FCE09F099EC1C
:101DB00026F004C07EFE05C07FFE0E017A697B69B5
:101DC000040E7C6F7D6B1200D9CFE6FFE1CFD9FF07
:101DD000020EE1260E01010E826FDF6A100EDF5C3B
:101DE00022E2010EDB6A080EF36E010EDBCFF4FF78
:101DF000F350F45C16E2DF50080DF3CF14F0F4CF8B
:101E000015F0600E1426000E1522010EDB500F0196
:101E10001424E96E000E1520EA6EEF6A010EDB2A2B
:101E2000E2D7DF2ADBD7020EE15C02E2E16AE5528B
:101E3000E16EE552E7CFD9FF1200D9CFE6FFE1CF3F
:101E4000D9FF0A0EE1260E01825101E19AD0D95044
:101E5000040FE66E000EDA20E66ECBEC24F0E552BD
:101E6000E5520E01802B000E8123040EDBCFDEFF36
:101E7000DBCFDDFF813504E280511408000E81556F
:101E80002FE3010EDB50010B1EE0DECF14F0DDCF9F
:101E900015F01406000E155A141E151EFF0E14160A
:101EA000010E151614C0DEFF15C0DDFFDECF14F0E5
:101EB000DDCF15F0153404E214500F08000E155450
:101EC00001E2FFDE0CD0DECF14F0DDCF15F01534CB
:101ED00004E214500F08000E155401E287DE50D0C2
:101EE00000DD00094AE1010E0E01156A7A25146E23
:101EF0007B51152214C0E6FF15C0E6FF7CCEE6FF3D
:101F00007DCEE6FF7ECE16F07FCE17F0040ED89081
:101F100016361736E806FBE1000E16260E0E1722BF
:101F200016C0E6FF17C0E6FF7BD9186E060EE15E0D
:101F30001850000920E07ACEE6FF7BCEE6FF7CCE8B
:101F4000E6FF7DCEE6FF7ECE14F07FCE15F0040EC8
:101F5000D89014361536E806FBE1000E14260E0E56
:101F6000152214C0E6FF15C0E6FF95D8166E060EC2
:101F7000E15E165002D00FD804D00E01806B816B49
:101F80001FD80A0EE15C02E2E16AE552E16EE55219
:101F9000E7CFD9FF12000E01806B816B826BE66A7E
:101FA000E66A080EE66E800EE66E380EE66E080EE5
:101FB000E66EDBEC1BF0146E060EE15E14501200B0
:101FC000D9CFE6FFE1CFD9FF020EE126DF6A100E7E
:101FD000DF5C36E2010EDB6A080EF36E010EDBCF2A
:101FE000F4FFF350F45C2AE2DF50080DF3CF14F055
:101FF000F4CF15F0600E1426000E1522010EDB50F2
:102000000F011424E96E000E1520EA6EEF500AE06D
:10201000DFCFE6FF010EDBCFE6FF6DEC23F0E552EC
:10202000E55209D0DFCFE6FF010EDBCFE6FF81EC02
:1020300023F0E552E552010EDB2ACED7DF2AC7D7BF
:10204000020EE15C02E2E16AE552E16EE552E7CFA1
:10205000D9FF1200D9CFE6FFE1CFD9FF010EE66E1E
:10206000F90EDBCFE6FFFA0EDBCFE6FFFB0EDBCF90
:10207000E6FFFC0EDBCFE6FFFD0EDBCFE6FFFE0E3C
:10208000DBCFE6FF29D8146E070EE15E1450E5524F
:10209000E7CFD9FF1200D9CFE6FFE1CFD9FF020E7B
:1020A000E66EF90EDBCFE6FFFA0EDBCFE6FFFB0EA6
:1020B000DBCFE6FFFC0EDBCFE6FFFD0EDBCFE6FF5E
:1020C000FE0EDBCFE6FF08D8146E070EE15E14505B
:1020D000E552E7CFD9FF1200D9CFE6FFE1CFD9FF14
:1020E000020EE126DF6A040EDF5C01E38FD0010EF1
:1020F000DB6A040EF36E010EDBCFF4FFF350F45CE9
:1021000001E382D0FD0EDBCF16F0FE0EDBCF17F021
:10211000DF50040D1650F324146E1750F420156E82
:10212000010EDB500F011424E96E000E1520EA6E3B
:10213000EF5067E0F80EDB0430E1DF50E76EF90E98
:10214000DBCF14F0FA0EDBCF15F0E7501426000EAB
:1021500015220F0ED8801456000E1556030ED89077
:1021600014361536E806FBE1600E1426000E152223
:10217000010EDB50E76EFB0EDBCF16F0FC0EDBCF63
:1021800017F0E7501626000E172214501624E96E99
:1021900015501720EA6EEF6A34D0F80EDB500208B3
:1021A00030E1DF50E76EF90EDBCF14F0FA0EDBCF33
:1021B00015F0E7501426000E15220F0ED880145685
:1021C000000E1556030ED89014361536E806FBE1BE
:1021D000600E1426000E1522010EDB50E76EFB0E7A
:1021E000DBCF16F0FC0EDBCF17F0E7501626000E03
:1021F000172214501624E96E15501720EA6E010EAE
:10220000EF6E010EDB2A75D7DF2A6DD7020EE15C77
:1022100002E2E16AE552E16EE552E7CFD9FF120032
:10222000D9CFE6FFE1CFD9FF080EE126DE6ADD6AED
:10223000DECF14F0DDCF15F0D890155004E6040E73
:10224000145C000E155801E3FCD0020EDB6A030E8D
:10225000DB6A020EDBCF14F0030EDBCF15F0D89053
:10226000155004E6040E145C000E155801E3E4D08A
:10227000FB0EDBCF16F0FC0EDBCF17F0020EDB50AF
:102280001624146E030EDB501720156E040E14C0B6
:10229000DBFF050E15C0DBFFF90EDBCF16F0FA0EE3
:1022A000DBCF17F0DE501624146EDD501720156EAC
:1022B0000F0ED8801456000E1556060E14C0DBFF04
:1022C000070E15C0DBFF040EDBCF14F0050EDBCFCD
:1022D00015F00001800E151425E1040EDBCF16F079
:1022E000050EDBCF17F0D890175004E6080E165CE9
:1022F000000E175817E2060EDBCF18F0070EDBCFE3
:1023000019F0800E19140EE1060EDBCF1AF0070E3D
:10231000DBCF1BF0D8901B5004E6100E1A5C000EA9
:102320001B581EE3DECF1EF0DDCF1FF0D8901E3607
:102330001F36D8901E361F36FD0EDB501E241C6E35
:10234000FE0EDB501F201D6E020EDB501C24E96EBA
:10235000030EDB501D20EA6EEF5002E0000E73D03A
:10236000040EDBCF14F0050EDBCF15F0800E151434
:102370005DE1040EDBCF16F0050EDBCF17F0D89031
:10238000175004E6080E165C000E17584FE2060EB2
:10239000DBCF18F0070EDBCF19F0800E191446E1E1
:1023A000060EDBCF1AF0070EDBCF1BF0D8901B50C8
:1023B00004E6100E1A5C000E1B5838E2DECF16F051
:1023C000DDCF17F0D89016361736D8901636173658
:1023D000FD0EDB501624146EFE0EDB501720156E1A
:1023E000020EDB501424E96E030EDB501520EA6E5A
:1023F000EF501CE0060EDBCF14F0070EDBCF15F01C
:10240000030ED89014361536E806FBE1600E14264C
:10241000000E1522040EDB501424E96E050EDB506D
:102420001520EA6EEF5002E0000E0DD0020EDB2AFE
:10243000030E01E3DB2A0DD7DF2A010E01E3DB2ABD
:10244000F7D6010E00D0146E080EE15C02E2E16ADC
:0E245000E552E16E1450E552E7CFD9FF1200BD
:02245E006BEC25
:1024600017F0FB0EDBCFF3FFDB06F35000090AE0A9
:10247000B9EC17F0FA0E24EC18F0F3E1151CF1E1B9
:10248000010E01D0000E9AEF17F06BEC17F03B0E27
:10249000E12402E3E168E652E16E010EDB6A020E1E
:1024A000DB6AF90EDBCFF6FFFA0EDBCFF7FFFB0E90
:1024B000DBCFF8FF0800F550DF6EDF5002E1BEEF22
:1024C00016F0250EDF5C02E0B1EF16F0030EDB6ABA
:1024D000040EDB6A050EDB6A060EDB6A070EDB6A9A
:1024E000D3EC16F02D0EDF5C0CE02B0EDF5C09E068
:1024F000200EDF5C06E0230EDF5C03E0300EDF5CC5
:102500001AE1DF50300A14E0130A0FE0030A0AE070
:102510000B0A05E0060AE4E1030EDB80E1D7030EB7
:10252000DB82DED7030EDB84DBD7030EDB86D8D756
:10253000030EDB88D5D72A0EDF5C1BE1CFEC16F04B
:102540001DEC17F010E0030EDB8008680968130E1D
:10255000DBCF0DF0140EDBCF0EF0BFEC26F0040E37
:1025600006C0DBFF03D0130E06EC17F0D3EC16F019
:102570000BD0090EDB6A74EC17F003E0E8EC17F0FF
:10258000FAD7090E06EC17F0030EDBB0DB982E0E1F
:10259000DF5C1BE1D3EC16F02A0EDF5C0BE1CFEC25
:1025A00016F01DEC17F003E1130E58EC17F0D3EC06
:1025B00016F00BD0090EDB6A74EC17F003E0E8ECC0
:1025C00017F0FAD7090E58EC17F0680EDF5C07E138
:1025D000D3EC16F0680EDF5C1DE1030E18D0740E0C
:1025E000DF5C17E07A0EDF5C14E0480EDF5C06E08B
:1025F000540EDF5C03E05A0EDF5C02E1020E07D0EE
:102600006C0EDF5C03E06A0EDF5C04E1010EABECF4
:1026100017F0C9DBDF506E0A01E17FD31E0A01E12A
:1026200092D1200A01E18FD13F0A01E149D11A0A72
:1026300001E146D10D0A01E143D1200A01E140D177
:102640003A0A01E13DD1200A01E13AD1260A01E12D
:1026500035D10D0A01E132D11A0A01E1D9D0200A9F
:102660004AE0300A1FE0460A0EE0250A01E083D363
:10267000D950F90FE96EFF0EDA20EA6E010EEE5E18
:10268000000EEE5AEE5AB9EC17F0250EE66E95DB09
:1026900003E1151C01E169D3B5EC17F001E26BD33E
:1026A000DB2A69D3080EDB6A040EDB50010806E260
:1026B000040EDB047DEC17F0DB508BDB080EDB50E7
:1026C00009E0030EDB50010B05E172DB01E04DD3A5
:1026D000080EDB6A64DBEFCFDFFF2DEC18F003E1BF
:1026E000151C01E142D3B5EC17F001E3DB2A60DBF6
:1026F00001E141D33AD3070EDB5002080FE1F9ECB8
:1027000017F0030EC0EC17F00E0EEECFDBFF0F0E2E
:10271000EECFDBFF100EEECFDBFF20D0F70EDBCFCE
:1027200017F0F80EDBCF18F0020E175E000E185AE5
:10273000F70E17C0DBFFF80E18C0DBFF17C0E9FF6C
:1027400018C0EAFFB0EC17F0166A0E0E14C0DBFFDB
:102750000F0E15C0DBFF100E16C0DBFF0E0EDBCF19
:10276000E6FF0F0EDBCFE6FF100EDBCFE6FFC3EC7C
:1027700027F0E552E552E552130E07C0DBFF140EB9
:1027800008C0DBFF060EDB5005E0130EF4EC17F07B
:1027900001E26ADB18EC18F002E2130E37DBDBEC27
:1027A00017F006E0040EF4EC17F002E2050E2EDB43
:1027B000030EDBB005D0FCDA01E0D7D2080EDB6AED
:1027C000090EDB6A0E0EDBCFF6FF0F0EDBCFF7FF35
:1027D000100EDBCFF8FF0800F550DF6EDF5014E07D
:1027E0001EEC18F011E22DEC18F003E1151C01E1CC
:1027F000BCD2BBDB01E3DB2A090EDB2AD9500E0F6A
:10280000E96E000ECBDBE7D7D3DA01E1B4D2ADD26B
:10281000C6DA110EEECFDBFF120EEDCFDBFF110E8D
:10282000DBCFE6FF120EDBCFE6FFB5EC27F0E5527B
:10283000E552130EF3CFDBFF140EF4CFDBFF060ED1
:10284000DB5004E0130ED0DB01E20EDB18EC18F0D5
:1028500002E2130EDBDAAFDB05E0040EC5DB02E2B9
:10286000050ED4DA030EDBB005D0A2DA01E07DD28A
:10287000080EDB6A090EDB6A110EDBCFE9FF120ED0
:10288000DBCFEAFFEFCFDFFFDF5014E0D7DB12E250
:10289000E4DB03E1151C01E168D267DB01E3DB2A1D
:1028A000090EDB2A110EDB2ADBCFE9FF120EE8E36B
:1028B000DB2AE6D77DDA01E15ED257D2030EDB8E4A
:1028C000070EDB0410E195DB040E5ADB0A0EEECF97
:1028D000DBFF0B0EEECFDBFF0C0EEECFDBFF0D0EA2
:1028E000EECFDBFF6CD0070EDB5003082CE1030EAC
:1028F000DBAE0DD0B2DA020E76DAEFCF14F0156A45
:10290000166A176A14AE39D01568166835D0F70EF6
:10291000DBCF15F0F80EDBCF16F0020E155E000EC1
:10292000165AF70E15C0DBFFF80E16C0DBFF15C0F8
:10293000E9FF16C0EAFFEFCF14F00A0E14C0DBFF68
:102940000B0EDB6A38D0070EDB50020809E1030EDC
:10295000DBAE04D059DB16AE10D00ED055DB0DD057
:10296000030EDBAE12D079DA020E3DDAF9DA166A1E
:10297000176A15AE02D016681768E2DA0C0E16C098
:10298000DBFF0D0E17C0DBFF1AD0F70EDBCF16F002
:10299000F80EDBCF17F0020E165E000E175AF70E78
:1029A00016C0DBFFF80E17C0DBFF16C0E9FF17C02B
:1029B000EAFFD6DAC5DA0C0EDB6A0D0EDB6A060E0C
:1029C000DB5005E1010EF36E050EF3CFDBFF150EB4
:1029D000DB6A160EDB6AD950370F146E000EDA2050
:1029E000156E390E14C0DBFF3A0E15C0DBFF380E32
:1029F000DB6A080EDB6A0A0EAEDADF50780A12E0F4
:102A0000200A10E0280A0CE0200A0AE03F0A06E04B
:102A10000D0A02E0200A08E1020E05D0080E03D0DC
:102A2000080EDF26100E97DA030EDBBE02D0DB9213
:102A3000DB94DB50800B24E08ADAD890030EEB5055
:102A4000000A08E6000EEE5C000EEE58000EEE588E
:102A5000000EEE5815E213DA0B680C680D680E686C
:102A60007DEC27F00A0E02C0DBFF0B0E03C0DBFF7C
:102A70000C0E04C0DBFF0D0E05C0DBFF2D0E08D0D1
:102A8000030EDBA202D02B0E03D0DBA408D0200E55
:102A9000F36E170EF3CFDBFF150EDB2A02D0170EF5
:102AA000DB6A050EDB5003E1B7D901E189D0A00E46
:102AB000146E500E156E000E166E070EDBCF17F05B
:102AC000186A196A1A6A17C00BF018C00CF019C0FE
:102AD0000DF01AC00EF0D3D9E8EC27F01450022400
:102AE000F36E15500320F46E16500420F86EF4CFE8
:102AF000F7FFF3CFF6FF0800090EF5CFDBFF580E06
:102B0000DF5C0FE1610EF36E090E7BD90AE3200E44
:102B1000146E090EDBCFE7FF1450E75E090EE7CF16
:102B2000DBFF070EDBCF14F0156A166A176A0FDA9F
:102B300014C00BF015C00CF016C00DF017C00EF04D
:102B4000EECF06F0EECF07F0EECF08F0EFCF09F0B2
:102B5000E8EC27F009C0EDFF08C0EDFF07C0EDFF6E
:102B600006C0EFFF390EDBCFE9FFDB063A0EDBCF05
:102B7000EAFF01E2DB06090EDBCFEFFF150EDB2AD1
:102B80004BD995E1030EDBA61DD06F0EDF5C06E18D
:102B9000C1D918E3150EDB285BDA14D0780EDF5CA0
:102BA00009E0580EDF5C06E0620EDF5C03E0420ED7
:102BB000DF5C08E1020EF36E160EF3CFDBFF02D0EE
:102BC000150EDB6A030EDB50100B0EE0040EDBCF9C
:102BD00014F0050EDB50D880145406E2060EDB50CC
:102BE00003E1040EDB5034DA95D90AE2050EDBCF9F
:102BF000E7FF150EDB50E75E050EE7CFDBFF02D0E7
:102C0000050EDB6A040EDBCF14F0160E45D9D88012
:102C1000145414E2160EDBCFE6FF150EDBCFE6FFF1
:102C2000040EDBCFE6FF050EDB50E552E75CE55214
:102C3000D880E754E552D880E7545FD9030EDB50C3
:102C4000010B0BE1080EDB5008E0B2D801E08DD09B
:102C5000080EDB50BED8080EDB6A170EDB5007E00B
:102C600088D9170EF1D903E1151C01E17ED0160EAB
:102C7000DB5016E07ED9300EE66E9FD802E1151CBF
:102C800074E077D9DFCFE6FF3BEC27F0E552E55261
:102C9000E552F4CF15F00001F31C02E1151C65E0CC
:102CA000050EDBCF14F0160EDB50D880145409E269
:102CB000050EDBCFE7FF160EDB50E75E050EE7CF14
:102CC000DBFF300EE66E050ECBD94FE1390EDB2A65
:102CD000DBCFE9FF3A0E01E3DB2ADBCFEAFF090E87
:102CE000EFCFDBFFDB500EE044D9090EADD902E196
:102CF000151C3BE0390EDB2ADBCFE9FF3A0EEDE392
:102D0000DB2AEBD755D831E1160EDBCFE6FF080EF4
:102D1000C3D8E552E7245DD82ED0070EDB50030A56
:102D20001CE0010A14E0030A07E07BD9DBCFEEFFC9
:102D3000020EDBCFEDFF1FD0F5D8196A17AE02D017
:102D4000186819682CD8BCD819C0EEFF14D0EAD87E
:102D500017BE186824D8B4D80ED063D9DBCFEFFFE4
:102D60000AD07BD905E1151C03E1F368F46810D0A3
:102D7000FCD801E3DB2A79D95AEF12F0010EDBCF40
:102D800014F0020EDBCF15F014C0F3FF15C0F4FFF2
:102D90003B0EE15C02E2E16AE552E16ECBD029D95B
:102DA000020EC0EF17F061D90800F550DF6E120077
:102DB000200EE66E080E30EF18F03BEC27F0E552DF
:102DC000E552E552F3CF14F0F4CF15F00001F31CF7
:102DD0001200146E156AD950010F4DD91450EE2609
:102DE0001550ED221200185E000E195AF70E18C089
:102DF000DBFFF80E19C0DBFF18C0E9FF19C0EAFFBE
:102E00001200DBCFF4FFF350F45C1200DB50E76EEE
:102E1000040EE7CFDBFF12000A0EDBCF14F00B0E1F
:102E2000DBCF15F00C0EDBCF16F00D0EDBCF17F05D
:102E300014501510161017101200130EEECFDBFFF2
:102E4000140EEDCFDBFF130EDBCF14F0140EDBCF2F
:102E500015F00001800E15141200F70EDBCF18F0EC
:102E6000F80EDBCF19F01200050EDB50E66ED950DC
:102E7000130F01D9E552E750EE6EED6A12000A0E0B
:102E8000DBCF06F00B0EDBCF07F00C0EDBCF08F02C
:102E90000D0EDBCF09F01200DBCFE6FF150EDBCF06
:102EA000E6FF050EDB50E552E724E552E724120069
:102EB000DB50CED8010EF36E060EF3CFDBFF12000F
:102EC000EE50EFCFEAFFE96E16C0EEFF17C0EEFF3F
:102ED00018C0EEFF1200D9CFE6FFDACFE6FFE1CF50
:102EE000D9FFE2CFDAFF1200DFCFE6FFE66A22EC7D
:102EF00028F0E552E552F3501200E76E080EE7CFD6
:102F0000DBFF1200EECF14F0EECF15F0EFCF16F08E
:102F1000176A1200050EDBCF14F0150EDB50D880B7
:102F200014541200010EDBCF16F0020EDBCF17F0A7
:102F3000186A1200E552E5CFDAFFE7CFD9FF120099
:102F40000A0E14C0DBFF0B0E15C0DBFF1200D950B8
:102F50000A0F3BEF18F0F36E070EF3CFDBFF120002
:102F6000EECF14F0EFCF15F01200010EDB2A020EA7
:102F70001200FC0EDBCFE6FFFD0EDBCFE6FF1200FA
:102F8000145E000E155AF70E14C0DBFFF80E15C0C4
:102F9000DBFF14C0E9FF15C0EAFF1200DA20EA6E79
:102FA000EF2AEECFF6FF000EEF22EECFF7FFEF2273
:102FB000EECFF8FF1200040EDBCFE6FF130EDB505E
:102FC000E552E75C9ADFDB5004DF060EDB501200AF
:102FD000090EDB500A0DF350DF24D00FE76E090E07
:102FE000E7CFDBFFD3EF16F0DB50F36E050E01EFFA
:102FF00017F0F70EDBCF14F0F80EDBCF15F0120050
:10300000DFCFE6FFDDEF16F028DF030EECDE82EF08
:1030100017F02FEC12F0E552E552E552E5520009A7
:103020001200BDDEEE50EFCFEAFFE96E010E120096
:10303000130EDB50F36E040E01EF17F0040EDB509D
:10304000F36E090E01EF17F0DBCFE6FFDDEF16F0B0
:10305000E76E050EE7CFDBFF12008BDF00EF18F005
:10306000DBCFE6FF86DF09EF18F0D950F90FE96EE4
:10307000FF0ECEEF17F0E96E000EDA20EA6E1200B6
:10308000D9CFE6FFE1CFD9FF020EE126FD0EDBCF5F
:1030900014F0DB06FE0EDBCF15F001E2DB06145068
:1030A000151011E0DE6ADD6ADECF14F0DDCF15F019
:1030B000E30E145C0D0E155805E2DF2A010E01E344
:1030C000DB2AF2D7E3D7020EE15C02E2E16AE552C5
:1030D000E16EE552E7CFD9FF1200D9CFE6FFE1CF8D
:1030E000D9FF060EE1268D9296928D9096908D8452
:1030F00096948A9A939A8C92DE6ADE6ADE6ADD6A18
:10310000DD52DD52D9CFE9FFDACFEAFF640EEE5C83
:10311000000EEE58000EEE58000EEE580AE2D9CF1F
:10312000E9FFDACFEAFFEE2A000EEE22EE22EE22CF
:10313000E9D78C82DE6ADE6ADE6ADD6ADD52DD5244
:10314000D9CFE9FFDACFEAFF640EEE5C000EEE584D
:10315000000EEE58000EEE580AE2D9CFE9FFDACFA2
:10316000EAFFEE2A000EEE22EE22EE22E9D7AE0EA4
:10317000E66E70D8E552DB0EE66E6CD8E552230E93
:10318000E66E68D8E552D90EE66E64D8E552220E96
:10319000E66E60D8E552A10EE66E5CD8E552C80E28
:1031A000E66E58D8E552DA0EE66E54D8E552120EA5
:1031B000E66E50D8E552A80EE66E4CD8E5523F0EAA
:1031C000E66E48D8E552D50EE66E44D8E552A00E1C
:1031D000E66E40D8E552810EE66E3CD8E552600EB0
:1031E000E66E38D8E552D30EE66E34D8E552E66A7C
:1031F00031D8E552A60EE66E2DD8E552AD0EE66E3C
:1032000029D8E5528B0EE66E25D8E552AF0EE66E54
:1032100021D8E5520A0EE66EE66A32DFE552E55243
:10322000A40EE66E17D8E552400EE66E13D8E552AE
:10323000020EE66E0FD8E552100EE66E0BD8E55280
:10324000060EE15C02E2E16AE552E16EE552E7CF8B
:10325000D9FF1200D9CFE6FFE1CFD9FF956AFE0E64
:10326000DB508C6E8D808D828A9A8D948D928D82AA
:103270008D849568E552E7CFD9FF1200D9CFE6FFDC
:10328000E1CFD9FF956AFE0EDB508C6E8D808D826A
:103290008A8A8D948D928D828D849568E552E7CFD0
:1032A000D9FF1200D9CFE6FFE1CFD9FF020EE12608
:1032B000B00EDF6EB80EDF5C23E2DFCFE6FFCADFC1
:1032C000E552020EE66EC6DFE552100EE66EC2DF74
:1032D000E552010EDB6ADB50146E156AD89015506A
:1032E00004E6840E145C000E155808E2FE0EDBCFD7
:1032F000E6FFC4DFE552010EDB2AEDD7DF2ADAD77D
:10330000020EE15C03E200D0E16AE552E16EE552B3
:10331000E7CFD9FF1200D9CFE6FFE1CFD9FFE652C0
:10332000200E146EFE0EDBCFE7FF1450E75EFE0E9C
:10333000E7CFDBFFFD0EDBCFE6FF8CDFE552020EB1
:10334000146EFC0EDBCFE7FF1450E726FC0EE7CF30
:10335000DBFFDB500F0BE66E7DDFE552FC0EDB384A
:103360000F0B0F0B100FE66E75DFE552FE0EDBCF75
:10337000F6FFF76AF6BEF768050EF702F3CFF7FF20
:10338000F602F3CFF6FFF450F726BA0EF626470EF4
:10339000F7220800F550E66E71DFE552FE0EDBCF36
:1033A000F6FFF76AF6BEF768050EF702F3CFF7FFF0
:1033B000F602F3CFF6FFF450F726BA0EF626470EC4
:1033C000F722010EF626000EF7220800F550E66EF1
:1033D00055DFE552FE0EDBCFF6FFF76AF6BEF76863
:1033E000050EF702F3CFF7FFF602F3CFF6FFF45026
:1033F000F726BA0EF626470EF722020EF626000E24
:10340000F7220800F550E66E39DFE552FE0EDBCFFD
:10341000F6FFF76AF6BEF768050EF702F3CFF7FF7F
:10342000F602F3CFF6FFF450F726BA0EF626470E53
:10343000F722030EF626000EF7220800F550E66E7E
:103440001DDFE552FE0EDBCFF6FFF76AF6BEF7682A
:10345000050EF702F3CFF7FFF602F3CFF6FFF450B5
:10346000F726BA0EF626470EF722040EF626000EB1
:10347000F7220800F550E66E01DFE552E66AFEDE4F
:10348000E55200D0E552E552E7CFD9FF1200D9CF7F
:10349000E6FFE1CFD9FFE652200E146EFE0EDBCF21
:1034A000E7FF1450E75EFE0EE7CFDBFFFD0EDBCF3C
:1034B000E6FFD0DEE552020E146EFC0EDBCFE7FF16
:1034C0001450E726FC0EE7CFDBFFDB500F0BE66E58
:1034D000C1DEE552FC0EDB380F0B0F0B100FE66E52
:1034E000B9DEE552FE0EDBCFF6FFF76AF6BEF768EF
:1034F000050EF702F3CFF7FFF602F3CFF6FFF45015
:10350000F726BA0EF626470EF7220800F51CE66EDF
:10351000B5DEE552FE0EDBCFF6FFF76AF6BEF768C2
:10352000050EF702F3CFF7FFF602F3CFF6FFF450E4
:10353000F726BA0EF626470EF722010EF626000EE3
:10354000F7220800F51CE66E99DEE552FE0EDBCF91
:10355000F6FFF76AF6BEF768050EF702F3CFF7FF3E
:10356000F602F3CFF6FFF450F726BA0EF626470E12
:10357000F722020EF626000EF7220800F51CE66E72
:103580007DDEE552FE0EDBCFF6FFF76AF6BEF7688A
:10359000050EF702F3CFF7FFF602F3CFF6FFF45074
:1035A000F726BA0EF626470EF722030EF626000E71
:1035B000F7220800F51CE66E61DEE552FE0EDBCF59
:1035C000F6FFF76AF6BEF768050EF702F3CFF7FFCE
:1035D000F602F3CFF6FFF450F726BA0EF626470EA2
:1035E000F722040EF626000EF7220800F51CE66E00
:1035F00045DEE552E66842DEE55200D0E552E5528E
:10360000E7CFD9FF1200D9CFE6FFE1CFD9FFE652CD
:10361000FB0EDB50DF6EFC0EDB50B10FE76EFC0ED5
:10362000E7CFDBFFFD0EDBCFF6FFFE0EDBCFF7FFB4
:103630000800F5501AE0DFCFE6FFFC0EDBCFE6FF17
:10364000FD0EDBCFF6FFFE0EDBCFF7FF0800F550D7
:10365000E66E61DEE552E552E552FD0EDB2AFE0E16
:1036600001E3DB2A060EDF26DDD7E552E552E7CF80
:10367000D9FF1200D9CFE6FFE1CFD9FFE652FB0E0A
:10368000DB50DF6EFC0EDB50B10FE76EFC0EE7CFB8
:10369000DBFFFD0EDBCFF6FFFE0EDBCFF7FF0800F2
:1036A000F5501AE0DFCFE6FFFC0EDBCFE6FFFD0EA4
:1036B000DBCFF6FFFE0EDBCFF7FF0800F550E66E1E
:1036C000E6DEE552E552E552FD0EDB2AFE0E01E391
:1036D000DB2A060EDF26DDD7E552E552E7CFD9FF1C
:1036E0001200D9CFE6FFE1CFD9FFE652FB0EDB5047
:1036F000DF6EFC0EDB50B10FE76EFC0EE7CFDBFF99
:10370000FD0EDBCFE9FFFE0EDBCFEAFFEF5019E045
:10371000DFCFE6FFFC0EDBCFE6FFFD0EDBCFE9FFE0
:10372000FE0EDBCFEAFFEF50E66EF5DDE552E55227
:10373000E552FD0EDB2AFE0E01E3DB2A060EDF2634
:10374000DFD7E552E552E7CFD9FF1200D9CFE6FF28
:10375000E1CFD9FFE652FB0EDB50DF6EFC0EDB50F3
:10376000B10FE76EFC0EE7CFDBFFFD0EDBCFE9FF0D
:10377000FE0EDBCFEAFFEF5019E0DFCFE6FFFC0ED5
:10378000DBCFE6FFFD0EDBCFE9FFFE0EDBCFEAFF6E
:10379000EF50E66E7CDEE552E552E552FD0EDB2A87
:1037A000FE0E01E3DB2A060EDF26DFD7E552E552E7
:1037B000E7CFD9FF1200D9CFE6FFE1CFD9FF050E41
:1037C000E126030EDB6A040EDB6A020E146EFA0EAB
:1037D000DBCFE7FF1450E726FA0EE7CFDBFFF90E49
:1037E000DB50B00FDF6EFB0EDB50B00FDF5C35E25D
:1037F000DFCFE6FF2FDDE552FA0EDB500F0BE66E52
:1038000029DDE552FA0EDB380F0B0F0B1009E66EBF
:1038100021DDE552010EDB6AFC0EDB50F36E010E7A
:10382000DBCFF4FFF350F45C16E2030EDB2A040E48
:1038300001E3DB2AFD0EDBCFF6FFDB2AFE0EDBCF3A
:10384000F7FF01E3DB2A0800F550E66E17DDE552CD
:10385000010EDB2AE1D7DF2AC6D7050EE15C03E2C1
:1038600000D0E16AE552E16EE552E7CFD9FF1200E0
:10387000D9CFE6FFE1CFD9FF070EE1260A0E0E01F0
:103880008D1901E18E5101E18ED2090E0E018D19C3
:1038900001E18E5101E186D2080E0E018D1901E180
:1038A0008E5101E15AD2070E0E018D1901E18E51A0
:1038B00001E141D2060E0E018D1901E18E5101E1A7
:1038C0001AD2050E0E018D1901E18E5101E1FBD0D6
:1038D000040E0E018D1901E18E5101E1EBD0030EB2
:1038E0000E018D1901E18E5101E185D0020E0E010C
:1038F0008D1901E18E5176E0010E0E018D1901E165
:103900008E510BE00E018D5101E18E5101E050D23C
:103910000E018D2B000E8E234CD26DEC18F0E66A52
:1039200052EC19F0E552E66AE66A6B0EE66E4C0E52
:10393000E66E03EC1BF0E552E552E552E552E66A0D
:10394000010EE66E550EE66E4C0EE66E03EC1BF0B5
:10395000E552E552E552E552E66A020EE66E3F0E8A
:10396000E66E4C0EE66E03EC1BF0E552E552E552B6
:10397000E552E66A030EE66E290EE66E4C0EE66E22
:1039800003EC1BF0E552E552E552E552E66A040EFF
:10399000E66E130EE66E4C0EE66E03EC1BF0E5527F
:1039A000E552E552E552E66A050EE66E3F0EE66E1A
:1039B0004C0EE66E03EC1BF0E552E552E552E55283
:1039C000E66A060EE66EFD0EE66E4B0EE66E03EC44
:1039D0001BF0E552E552E552E552020E0E018D6FE5
:1039E0008E6BE7D119EC1FF0010804E1030E0E0104
:1039F0008D6F8E6BDED1E66AE66AE70EE66E4B0EE1
:103A0000E66E03EC1BF0E552E552E552E552E66A3C
:103A1000010EE66ED10EE66E4B0EE66E03EC1BF069
:103A2000E552E552E552E552E66A020EE66EBB0E3D
:103A3000E66E4B0EE66E03EC1BF0E552E552E552E6
:103A4000E552E66A030EE66EA50EE66E4B0EE66ED6
:103A500003EC1BF0E552E552E552E552E66A040E2E
:103A6000E66E8F0EE66E4B0EE66E03EC1BF0E55233
:103A7000E552E552E552E66A050EE66E3F0EE66E49
:103A80004C0EE66E03EC1BF0E552E552E552E552B2
:103A9000E66A060EE66E790EE66E4B0EE66E03ECF7
:103AA0001BF0E552E552E552E552040E0E018D6F12
:103AB0008E6B7FD119EC1FF0010804E1050E0E0199
:103AC0008D6F8E6B76D184EC1FF0E76E060EE7CF1C
:103AD000DBFF060EDB5002080DE10E01903504E21B
:103AE0008F510008000E905504E20E018F07000E62
:103AF000905B11D0060EDB040EE1030E0E0190AFB9
:103B000002D0D89003D08F5D000E905904E20E01D0
:103B10008F2B000E9023E66AE66A640EE66E4B0E6B
:103B2000E66E03EC1BF0E552E552E552E552E66A1B
:103B3000020EE66E640EE66E4B0EE66E03EC1BF0B4
:103B4000E552E552E552E552E66A040EE66E640E71
:103B5000E66E4B0EE66E03EC1BF0E552E552E552C5
:103B6000E5520E018F5190110EE1E66A010EE66EEC
:103B70004E0EE66E4B0EE66E3AEC1BF0E552E55249
:103B8000E552E5520DD0E66A010EE66E4E0EE66E87
:103B90004B0EE66E03EC1BF0E552E552E552E552A2
:103BA0000E01010E8F1901E190510EE1E66A030E3C
:103BB000E66E380EE66E4B0EE66E3AEC1BF0E55202
:103BC000E552E552E5520DD0E66A030EE66E380E78
:103BD000E66E4B0EE66E03EC1BF0E552E552E55245
:103BE000E5520E01020E8F1901E190510EE1E66AD5
:103BF000050EE66E220EE66E4B0EE66E3AEC1BF0FC
:103C0000E552E552E552E5520DD0E66A050EE66E44
:103C1000220EE66E4B0EE66E03EC1BF0E552E5520B
:103C2000E552E552E66A060EE66E640EE66E4B0E4F
:103C3000E66E03EC1BF0E552E552E552E552E66A0A
:103C4000C7EC21F0E552DE52F3CFDEFFF4CFDDFF0B
:103C5000DD52010EDBCF14F0020EDBCF15F0580E53
:103C6000145C020E155846E2020E0E018F1901E196
:103C700090513EE0010E0E018F1901E1905125E0B7
:103C80000E018F5101E1905101E034D0060E0E017A
:103C90008D6F8E6BE66AE66A080EE66E800EE66E43
:103CA000380EE66E100EE66EDBEC1BF0146E060EA0
:103CB000E15E1450640EE66EE66A40EC18F0E552E0
:103CC000E5520E018F6B906B15D0090E0E018D6FB2
:103CD0008E6B640EE66EE66A40EC18F0E552E55233
:103CE000E66A52EC19F0E5520E018F6B906B02D030
:103CF000FF0000D05ED0E66AC7EC21F0E552DE524C
:103D0000F3CFDEFFF4CFDDFFDD52010EDBCF14F089
:103D1000020EDBCF15F0580E145C020E15580AE2A5
:103D2000E4EC0EF0070E0E018D6F8E6BE66A52EC1E
:103D300019F0E5523ED00E01825105E1080E0E0148
:103D40008D6F8E6B09D01DEC0FF0020EE66EE66AE9
:103D500040EC18F0E552E5522CD0E66AC7EC21F0B1
:103D6000E552DE52F3CFDEFFF4CFDDFFDD52010E70
:103D7000DBCF14F0020EDBCF15F0580E145C020EF0
:103D800015580FE2E66A52EC19F0E552050E0E01E5
:103D90008D6F8E6B640EE66EE66A40EC18F0E552AD
:103DA000E55207D006D0E66852EC19F0E55201D092
:103DB00000D0070EE15C02E2E16AE552E16EE552F5
:103DC000E7CFD9FF1200D9CFE6FFE1CFD9FF020E2E
:103DD000E126580EDE6E020EDD6E6DEC18F00F0E51
:103DE000C1129B8CDFCF14F0DF06010EDBCF15F084
:103DF00001E2DB061450151001E0F4D70F01486909
:103E00004969E66A52EC19F0E55264EC20F0C4EC22
:103E100021F02FEC22F0020EE15C02E2E16AE552B1
:103E2000E16EE552E7CFD9FF1200CDDF21DDFED7ED
:023E300012007E
:0E3E320081B01FD00001F2C014F0F3C015F0F3
:103E4000F4C016F0F5C017F0F22B000EF323F423A4
:103E5000F523D880D00E1454070E1554000E1654B6
:103E6000000E175406E2F26BF36BF46BF56B010E68
:103E7000F16F11D00001F1050EE1F251F311F411CF
:103E8000F51104E1F16B010E08D005D0F207000E28
:103E9000F35BF45BF55B000E00D01200D9CFE6FFB8
:103EA000E1CFD9FFFD0EDBCF14F0FE0EDBCF15F016
:103EB000BC0E145C020E15580BE3FB0EDBCF16F0A4
:103EC000FC0EDBCF17F0BC0E165C020E175816E284
:103ED000FD0EDBCF14F0FE0EDBCF15F0FB0EDBCFBB
:103EE00016F0FC0EDBCF17F01650145C1750155867
:103EF00003E2010E05D004D0020E02D0000E00D065
:103F0000E552E7CFD9FF1200D9CFE6FFE1CFD9FFC5
:103F10000E0EE126040EDB6AD950050FE96EDACFEA
:103F2000EAFFEE6AEE6AEE6AEE6AEE6AEE6AEE6A40
:103F3000EE6AEE6A010EE66EC7EC21F0E552F3CFB1
:103F4000DEFFF4CFDDFF020EE66EC7EC21F0E55296
:103F5000020EF3CFDBFF030EF4CFDBFF020EDBCF4D
:103F6000E6FF030EDBCFE6FFDECFE6FFDDCFE6FFA9
:103F700095DFE552E552E552E5520001EB6F010E87
:103F8000DE6EDD6ADECFE6FFDDCFE6FF810E146E6A
:103F90004C0E156E166A14C0E6FF15C0E6FF16C07B
:103FA000E6FFD950040FE66E000EDA20E66E43EC11
:103FB00026F0176E070EE15E1750E66A060EE66EF3
:103FC000D950040FE66E000EDA20E66E03EC1BF00B
:103FD000E552E552E552E5520001EB5110E0EE5199
:103FE0000EE1010EEE6F020EDBCF14F0030EDBCFFD
:103FF00015F01450DE5CEC6F1550DD58ED6FEB5191
:1040000003E1EE6B000E54D0EE5128E0DECF18F045
:10401000DDCF19F0020EDB50185C166E030EDB507C
:104020001958176E1650EC5D146E1750ED59156E39
:10403000153404E214506408000E15540FE2020E09
:10404000DBCF14F0030EDBCF15F01450DE5CEC6F09
:104050001550DD58ED6F020E2BD02AD0EE5128E01E
:10406000DECF18F0DDCF19F0020EDB50185C166EB3
:10407000030EDB501958176E1650EC5D146E175076
:10408000ED59156ED880155004E79C0E145CFF0E98
:1040900015580EE2020EDBCF14F0030EDBCF15F045
:1040A0001450DE5CEC6F1550DD58ED6F010E00D042
:1040B000146E0E0EE15C02E2E16AE552E16E14500C
:0840C000E552E7CFD9FF120021
:0840C800D9CFE6FFE1CFD9FFDB
:1040D000030EE12659D8736A820E726E739C949413
:1040E0009396958C7288728A949EE66AD0D8E5522F
:1040F000E76E020EE7CFDBFF0000D950020FE96E3A
:10410000DACFEAFFEF50070B020801E00000140EBF
:10411000E66EBDD8E552E76E020EE7CFDBFF020E7A
:10412000DB96DB88020EDB80DB92DB94020EDBCFBA
:10413000E6FF140EE66E3AD8E552E552010EE66E41
:10414000A6D8E552DE6EDD6A0000110EE66E9FD83D
:10415000E552DE6EDD6A0000E66A110EE66E26D8D4
:10416000E552E5520000110EE66E91D8E552DE6E82
:10417000DD6A0000030EE15C02E2E16AE552E16EF5
:10418000E552E7CFD9FF1200550EA76EAA0EA76E13
:104190000E01FF91090ECC6F0A0ED36F170EFB6F45
:1041A000550EA76EAA0EA76EFF811200D9CFE6FFAB
:1041B000E1CFD9FFE652DF6AFE0EDB50140804E0BF
:1041C000FE0EDB50340806E1140EE66E60D8E552B0
:1041D000E00BDF6E8B9EA49EFE0EDB50756EA4AED0
:1041E000FED70000000000000000000000000000FA
:1041F00000000000000000000000000000000000BF
:1042000000000000000000000000000000000000AE
:10421000000000000000000000000000000000009E
:10422000000000000000000000000000000000008E
:10423000000000000000000000000000000000007E
:10424000000000000000000000000000000000006E
:10425000000000000000000000000000000000005E
:104260000000A49EFE0EDB500A0805E1FD0EDB50A7
:104270007F0B756E04D0FD0EDB50DF10756EA4AEA3
:10428000FED78B8EE552E552E7CFD9FF1200D9CF8A
:10429000E6FFE1CFD9FF8B9EA49EFE0EDB50800986
:1042A000756EA4AEFED70000000000000000000004
:1042B00000000000000000000000000000000000FE
:1042C00000000000000000000000000000000000EE
:1042D00000000000000000000000000000000000DE
:1042E00000000000000000000000000000000000CE
:1042F00000000000000000000000000000000000BE
:1043000000000000000000000000000000000000AD
:10431000000000000000000000000000000000009D
:10432000000000000000A49E756AA4AEFED78B8E2C
:0C433000755000D0E552E7CFD9FF120015
:04433C00030EB16E4D
:10434000B392B390B396B288B28EB290B292A49464
:10435000B38E12002F0E926E0F01E00E486F1F0EEB
:10436000496FC18EC19CC70EC1140809C16EF80EF9
:10437000C1140209C16E498FC29CC29EC30EC214F1
:104380000809C26EC2801200D9DFAAEF21F0D9CF8E
:10439000E6FFE1CFD9FF020EE126FE0EDB500F0B48
:1043A000F36EF346F346C30EC214F310C26EFE0E54
:1043B000DB50EA6A890FE96E0E0EEA22EF503F0BDE
:1043C000F36EF346F346030EB114F310B16EB38EE1
:1043D000B3820000000000000000000000000000A8
:1043E00000000000000000000000000000000000CD
:1043F00000000000000000000000B392B280000046
:1044000000000000000000000000000000000000AC
:10441000000000000000000000000000000000009C
:10442000000000000000B2909E9CC2829EACFED7AD
:10443000C3CFDEFFC4CFDDFFDECF14F0DDCF15F03C
:1044400014C0F3FF15C0F4FF00D0020EE15C02E2DD
:10445000E16AE552E16EE552E7CFD9FF1200D9CF0C
:10446000E6FFE1CFD9FF030EE126020EDB6A040E60
:10447000F36E020EDBCFF4FFF350F45C01E383D064
:10448000020EDB50EA6A890FE96E0E0EEA22EF6A2D
:10449000020EDBCFE6FF7BDFE552F3CFDEFFF4CF8A
:1044A000DDFFDECF14F0DDCF15F0200E145C030E1F
:1044B00015582EE2020EDB50EA6A890FE96E0E0EE5
:1044C000EA22EF501F0809E1020EDB50EA6A890F69
:1044D000E96E0E0EEA22EF6A1AD0020EDB50EA6A8B
:1044E000890FE96E0E0EEA22EF2A020EDBCFE6FFFD
:1044F0004EDFE552F3CFDEFFF4CFDDFFDECF14F069
:10450000DDCF15F0200E145C030E1558D3E338D020
:10451000D9CFE9FFDACFEAFF200ED880EE54030EA0
:10452000ED542EE2020EDB50EA6A890FE96E0E0EA0
:10453000EA22EF50E10809E1020EDB50EA6A890F36
:10454000E96E0E0EEA22EF6A1BD0020EDB50EA6A19
:10455000890FE96E0E0EEA22EF06020EDBCFE6FFB0
:1045600016DFE552F3CFDEFFF4CFDDFFD9CFE9FF51
:10457000DACFEAFF200ED880EE54030EED54D2E3DA
:10458000020EDB2A74D7030EE15C02E2E16AE55217
:0A459000E16EE552E7CFD9FF1200FB
:06459A00D9CFE6FFE1CFDE
:1045A000D9FF956AFE0EDB508C6E8D928D82EE0ED9
:1045B000E66E2AEC19F0E552E552E7CFD9FF12007A
:1045C000D9CFE6FFE1CFD9FFE652E00EE66E2AEC46
:1045D00019F0E5528A8A8D828D808D948D9000002D
:1045E0000000000000008350DF6E8D808D90000081
:1045F0000000000000008350DF6E8D80DF5000D08F
:10460000E552E552E7CFD9FF1200D9CFE6FFE1CF5F
:10461000D9FF020EE126FE0EDB50020FDF6E0F0EF9
:10462000DF14E66E2AEC19F0E552DF380F0B0F0BA2
:10463000100FE66E2AEC19F0E552FD0EDB40E84063
:10464000E8401F0B070BB009E66E2AEC19F0E552A3
:10465000B7DFE76E010EE7CFDBFFFC0EDB5015E0A6
:10466000010EDBCFE6FFFD0EDB50070B146E010ED3
:10467000145204E0E846FE0B1406FCE1E552E71094
:10468000E76E010EE7CFDBFF19D0010EDBCFE6FFAF
:10469000FD0EDB50070B146E010E145204E0E846C9
:1046A000FE0B1406FCE1000902E0000E01D0010E31
:1046B000E552E714E76E010EE7CFDBFFDBCFE6FF45
:1046C0006CDFE552020EE15C03E200D0E16AE552E4
:1046D000E16EE552E7CFD9FF1200D9CFE6FFE1CF77
:1046E000D9FF010EE66EFE0EDBCFE6FFFD0EDBCF3F
:1046F000E6FF1AD8E552E552E552E552E7CFD9FF79
:104700001200D9CFE6FFE1CFD9FFE66AFE0EDBCF7C
:10471000E6FFFD0EDBCFE6FF07D8E552E552E55296
:10472000E552E7CFD9FF1200D9CFE6FFE1CFD9FF9D
:10473000020EE126FE0EDB50100835E3FD0EDB50C5
:10474000080831E3FD0EDB50B009E66E2AEC19F0E3
:10475000E552FE0EDB50080D010EF3CFDBFFDF6EDE
:10476000070EDF5C20E2010EDB2ADB500F0BE66E4A
:104770002AEC19F0E552010EDB380F0B0F0B100974
:10478000E66E2AEC19F0E552FC0EDB5006E07E0ED8
:10479000E66E3EEC19F0E55204D0E66A3EEC19F004
:1047A000E552DF2ADDD7020EE15C02E2E16AE55262
:0A47B000E16EE552E7CFD9FF1200D9
:0647BA00000000000000F9
:1047C000004F00000007000700147F147F14242A04
:1047D0007F2A1223130864623649552250000503CC
:1047E0000000001C2241000041221C0014083E0869
:1047F0001408083E0808005030000008080808089F
:10480000006060000020100804023E5149453E004F
:10481000427F400042615149462141454B311814C5
:10482000127F1027454545393C4A494930017109F5
:1048300005033649494936064949291E00363600DE
:1048400000005636000008142241001414141414F9
:1048500000412214080201510906324979413E7E85
:104860001111117E7F494949363E414141227F4124
:1048700041221C7F494949417F090909013E4149BB
:10488000497A7F0808087F00417F41002040413F6E
:10489000017F081422417F404040407F020C027F8C
:1048A0007F0408107F3E4141413E7F090909063ED1
:1048B0004151215E7F091929464649494931010183
:1048C0007F01013F4040403F1F2040201F3F4038B4
:1048D000403F631408146307087008076151494595
:1048E00043007F41410002040810200041417F0045
:1048F0000402010204404040404000010204002044
:10490000545454787F48444438384444442038440C
:1049100044487F3854545418087E0901020C5252FE
:10492000523E7F0804047800447D40002040443D0E
:10493000007F1028440000417F40007C0418047868
:104940007C0804047838444444387C14141408085F
:104950001414187C7C080404084854545420043F60
:104960004440203C4040207C1C2040201C3C4030E7
:10497000403C44281028440C5050503C4464544C53
:1049800044000836410000007F0000004136080066
:05499000020102040217
:0A499600D9CFE6FFE1CFD9FF030EF1
:1049A000E66E47EC21F0E552166E16C017F0166A57
:1049B00016C0E6FF17C0E6FF020EE66E47EC21F0D8
:1049C000E552E552E7CF17F0E552E7CF16F00001C8
:1049D0001610146E17C015F0FD0EDBCFE9FFFE0EAA
:1049E000DBCFEAFF14C0EEFF15C0EDFFFD0EDBCFFD
:1049F000E9FFFE0EDBCFEAFF200E0D6E0E6AEECF52
:104A000008F0EDCF09F099EC26F008C0EEFF09C0E0
:104A1000EDFF050EE66E47EC21F0E552166E16C06E
:104A200017F0166A16C0E6FF17C0E6FF040EE66E22
:104A300047EC21F0E552E552E7CF17F0E552E7CF1A
:104A400016F000011610146E17C015F0FD0EDBCF26
:104A5000E9FFFE0EDBCFEAFF020EE926000EEA2296
:104A600014C0EEFF15C0EDFFFD0EDBCFE9FFFE0E1B
:104A7000DBCFEAFF020EE926000EEA22200E0D6EC1
:104A80000E6AEECF08F0EDCF09F099EC26F008C0E1
:104A9000EEFF09C0EDFF070EE66E47EC21F0E55290
:104AA000166E16C017F0166A16C0E6FF17C0E6FFAE
:104AB000060EE66E47EC21F0E552E552E7CF17F01F
:104AC000E552E7CF16F000011610146E17C015F06E
:104AD000FD0EDBCFE9FFFE0EDBCFEAFF040EE92679
:104AE000000EEA2214C0EEFF15C0EDFFFD0EDBCF75
:104AF000E9FFFE0EDBCFEAFF040EE926000EEA22F4
:104B0000200E0D6E0E6AEECF08F0EDCF09F099EC95
:104B100026F008C0EEFF09C0EDFFE552E7CFD9FF50
:024B2000120081
:0E4B2200202020202020515549542047414D8D
:104B3000452020202020200020202020202043412C
:104B40004C49425241544520202020202000202062
:104B5000202020204E4557202047414D4520202031
:104B60002020200020202020202020202020202065
:104B70002020202020202020005072657373204DBB
:104B8000656E7520746F2070726F636565640020B8
:104B9000332E2020202020456E6A6F79202120208E
:104BA0002020202000202020746F206D6F7665204B
:104BB000626C6F636B732E2020200020322E2054F5
:104BC000696C742074686520626F617264202020B3
:104BD000002073656C656374206D656E7520697463
:104BE000656D732E20200020312E205573652073B3
:104BF00063726F6C6C20746F202020200020505254
:104C0000455353204D454E5520544F205354415247
:104C1000542000202047656E6572617465642061D0
:104C20007420495349422020002020506F7765723C
:104C30006564206F6E2050494331384620200020A3
:104C40002020202020202020202020202020202064
:104C500020202020002042792042554C544F5420DF
:104C60002047656F6666726579200020202020202D
:104C70005445545249532076312E30202020202094
:054C8000002575640031
:0A4C8600D9CFE6FFDACFE6FFE1CF59
:104C9000D9FFE2CFDAFFE652E652E652E652D950A9
:104CA000F90F146EFF0EDA20156E020E14C0DBFF32
:104CB000030E15C0DBFF020EDBCFE6FF030EDBCFDA
:104CC000E6FFF90EDBCFE6FFFA0EDBCFE6FFFB0EC9
:104CD000DBCFE6FFD950FC0FE66EFF0EDA20E66E62
:104CE00045EC12F0146E070EE15C02E2E16AE55257
:104CF000E16E1450F3CFDEFFF4CFDDFFFC0EDBCF0F
:104D0000E9FFFD0EDBCFEAFFEF6ADECF14F0DDCF67
:104D100015F014C0F3FF15C0F4FF040EE15C02E2CD
:104D2000E16AE552E16EE552E5CFDAFFE7CFD9FF60
:024D300012006F
:0E4D3200006A0EAEA2EF26F00D6C0E1EE86AAF
:104D40000E22001E09AEAAEF26F0086C091EE86AC2
:104D50000922001E0CEC28F009BEBAEF26F000AEC6
:104D6000000C086C091EE86A0922046C051EE86A3A
:104D70000522000C00BEB1EF26F00188FF0C09C02F
:104D800013F008C012F008500D02F4CF07F0F3CF73
:104D900006F009500E02F4CF09F0F3CF08F00D022F
:104DA000F3500726F4500822E86A092212500E0236
:104DB000F3500726F4500822E86A09220EAEE5EF08
:104DC00026F01250085E1350095A13AE000C0D5015
:084DD000085E0E50095A000CA8
:084DD800060EF66E000EF76EE8
:104DE000000EF86E0E010900F550756F0900F550C0
:104DF000766F03E1756701D03DD00900F550706F03
:104E00000900F550716F0900F550726F0900090033
:104E1000F550E96E0900F550EA6E09000900090035
:104E2000F550736F0900F550746F09000900F6CF53
:104E300077FEF7CF78FEF8CF79FE70CEF6FF71CE11
:104E4000F7FF72CEF8FF0E01735302E1745307E0CF
:104E50000900F550EE6E7307F8E27407F9D777CEC4
:104E6000F6FF78CEF7FF79CEF8FF0E017507000E3A
:064E7000765BBFD71200C3
:0A4E7600D9CFE6FFDACFE6FFE1CF67
:104E8000D9FFE2CFDAFFFB0EDBCF14F0FC0EDBCF55
:104E900015F00001800E15141AE1FB0EDBCFE9FFBF
:104EA000FC0EDBCFEAFFEECFF3FFEDCFF4FFEE2AEF
:104EB000000EEF22F3CFE9FFF4CFEAFFFD0EDBCFC8
:104EC000EFFFEF50156AF36E15C0F4FF10D0FB0E24
:104ED000DB50FE0806E1FD0EDBCFE6FF42EC28F0DA
:104EE00005D0FD0EDBCFE6FF60EC28F0E552E55281
:0A4EF000E5CFDAFFE7CFD9FF12008B
:064EFA0006500B02F3CF8D
:104F000002F0F4CF03F00C02F3500326000EF4205D
:104F1000046E06500D02F3500426000EF420056EB8
:104F200006500E02F350052607500B02F3500326DD
:104F3000F4500422000E052207500C02F350042600
:104F4000F450052207500D02F350052608500B02BD
:104F5000F3500426F450052208500C02F3500526A5
:0A4F600009500B02F3500526120061
:064F6A00FE0EE3CFE9FF9B
:104F7000FF0EE3CFEAFFF36AF46AEE5203E0F34A6E
:104F8000F42AFBD71200FF0EE3CFF8FFE552FF0E25
:104F9000E3CFF7FFE552FF0EE3CFF6FFE552E66AF7
:104FA000E66AE66A0900F55209E0FD0EE32A05E12A
:104FB000FE0EE32A02E1FF0EE32AF4D7FD0EE3CF53
:104FC00007F0FE0EE3CF08F0FF0EE3CF09F012006A
:104FD000056A046A036A026A200EE76ED8900636F4
:104FE00007360836093602360336043605360B50C6
:104FF000025C0C5003580D5004580E50055809E33C
:105000000B50025E0C50035A0D50045A0E50055AB4
:08501000062AE72EE4D7120086
:08501800056A046A100EE76E40
:10502000D89008360936043605360D50045C0E500B
:10503000055805E30D50045E0E50055A082AE72E68
:04504000F0D7120093
:0C504400F36AF46AFF0EE124E96EFF0E2F
:10505000E220EA6EED6607D02F0EEF6404D03A0E20
:08506000EF6001D0F32A1200F9
:085068001DEE00F02DEE00F03A
:10507000F86A019CECEC26F061EC28F015EC1FF0CE
:04508000FBD7120048
:0C508400FF0EE350ADBA04D0B06AAC8E51
:10509000AD8A949CADA2FED7AE6EF36EF46A120098
:1050A000303132333435363738396162636465669E
:0150B00000FF
:0E50B20000EE00F00E0EEE6AEA62FDD712006C
:0250C0001200DC
:0250C2001200DA
:0450C40000000000E8
:0850C8000001000000010000DE
:1050D00000010000000100000001000000010000CC
:1050E00001010000000000000001000000010000BC
:1050F00000010100000000000000000000010100AC
:10510000000101000000000000000000000101009B
:10511000010100000000000000000000010101008A
:10512000000100000000000000000000010100007C
:08513000000101000000000075
:08513800FFFF0400000000006D
:01514000006E
:0B514100000000000000000000000063
:01FFF800AA5E
:01FFF900F710
:01FFFA001DE9
:01FFFB00FF06
:01FFFC0063A1
:01FFFD00F80B
:01FFFE008181
:01FFFF00F110
:00000001FF
